:020000040800F2
:1000000040180024AD02000809730008A16C000824
:1000100001730008290D0008E18B000800000000B2
:1000200000000000000000000000000089750008CA
:100030004113000800000000417300080976000821
:10004000CB020008CB020008CB020008CB0200085C
:10005000CB020008CB020008CB020008CB0200084C
:10006000CB020008CB020008CB020008310D0008CB
:10007000CB020008CB020008CB020008CB0200082C
:10008000CB020008CB020008CB020008CB0200081C
:10009000CB020008CB020008CB020008491300087D
:1000A000CB020008CB020008CB020008CB020008FC
:1000B000CB020008CB020008CB020008CB020008EC
:1000C000CB020008CB020008CB020008CB020008DC
:1000D000CB020008CB020008CB020008D18B00083D
:1000E000CB020008CB02000800000000CB02000891
:1000F000CB020008CB020008CB020008CB020008AC
:10010000CB020008CB020008CB020008CB0200089B
:10011000CB020008CB020008CB020008CB0200088B
:10012000CB020008CB020008CB020008CB0200087B
:10013000CB020008CB020008CB020008CB0200086B
:1001400000000000000000000000000000000000AF
:10015000CB020008CB020008CB020008CB0200084B
:10016000CB020008CB020008CB020008CB0200083B
:10017000CB020008CB020008CB0200080000000000
:10018000CB020008CB020008CB020008CB0200081B
:10019000CB020008CB020008CB020008CB0200080B
:1001A000CB020008CB020008CB020008CB020008FB
:1001B000CB020008CB020008CB020008CB020008EB
:1001C000CB020008CB020008CB020008CB020008DB
:1001D000CB020008CB020008CB020008CB020008CB
:1001E000CB020008CB020008CB020008CB020008BB
:1001F000CB020008CB020008CB020008CB020008AB
:10020000CB020008CB020008CB020008CB0200089A
:10021000CB020008CB020008CB020008CB0200088A
:10022000CB020008CB020008CB020008000000004F
:10023000CB020008CB02000800000000CB0200083F
:10024000CB020008CB020008CB020008CB0200085A
:10025000CB020008CB020008CB020008CB0200084A
:10026000CB020008CB020008CB020008CB0200083A
:10027000CB020008CB020008CB02000800000000FF
:10028000CB020008CB020008CB02000800000000EF
:1002900000000000CB020008DFF80CD000F092FA5A
:1002A00000480047A98C00084018002407488047F0
:1002B0000748804707480047FEE7FEE7FEE7FEE7FE
:1002C000FEE7FEE7FEE7FEE7FEE7FEE78113000834
:1002D000D1760008990200082DE9F05F054600205C
:1002E00092469B4688460646814640241BE02846A7
:1002F00041464746224600F065F853465A46C01A22
:10030000914110D311461846224600F04CF82D1AA0
:1003100067EB01084F4622460120002100F043F818
:1003200017EB00094E41201EA4F10104DFDC484612
:1003300031462A464346BDE8F09FD2B201E000F8BC
:10034000012B491EFBD270470022F6E710B5134679
:100350000A4604461946FFF7F0FF204610BD30B4A8
:10036000044696230800214604D0B62330BC002260
:1003700000F041B820460021F8E730B50B460146B1
:1003800000202022012409E021FA02F59D4205D334
:1003900003FA02F5491B04FA02F52844151EA2F1DE
:1003A0000102F1DC30BD202A04DB203A00FA02F120
:1003B000002070479140C2F1200320FA03F3194353
:1003C00090407047202A04DB203A21FA02F00021F5
:1003D000704721FA02F3D040C2F120029140084355
:1003E000194670470029A8BF7047401C490008BF44
:1003F00020F00100704710B4B0FA80FC00FA0CF055
:1004000050EA010404BF10BC704749B1CCF120048C
:1004100021FA04F411FA0CF118BF01212143084319
:10042000A3EB0C01CB1D4FEA00614FEA102042BF45
:10043000002010BC704700EBC35010440029A4BF3B
:1004400010BC7047401C490008BF20F0010010BCE0
:1004500070472DE9FE4F804681EA0300C00F0C462D
:10046000009021F0004123F00045B8EB0200A941C3
:1004700005D24046214690461C460B46024623F0D4
:100480000040104347D0270DC7F30A00C3F30A51B9
:100490000290401A019040286BDAC3F3130040F435
:1004A000801B0098924620B10023D2EB030A63EB35
:1004B0000B0B01985946C0F140025046FFF773FFFD
:1004C00006460D4650465946019A00F08DF910EB4C
:1004D00008006141002487EA115284EAE7731A4355
:1004E00040D0009A62B3019A012A4FEA075215DC04
:1004F000001B61EB02014FF0004202EA0752CDE916
:100500000042001C41F5801132462B4600F08DF967
:1005100003B0BDE8F08F40462146F9E7001B61EBD0
:100520000201001C41F5801300185B412018A2F560
:10053000001747EB030140EAD570B6196D4111E091
:100540006D084FEA360645EAC0754FEA0752001BB0
:1005500061EB0201001C41F5801149084FEA3000AF
:100560000019514132462B4603B0BDE8F04F00F070
:100570004DB90098012240000023D0EB020263EB4A
:10058000E073009821464FEAE074B8EB000061EB9D
:100590000401E9E783F000435BE781F0004158E79D
:1005A0002DE9FE4F81EA030404F0004421F00041EC
:1005B00000944FF0000B23F0004350EA01045ED09A
:1005C00052EA03045BD0C3F30A54C1F30A552C4426
:1005D000A4F2F3340194A0FB0254C1F3130141F4DB
:1005E0008011C3F3130343F4801301FB024400FBA7
:1005F000034E840A970A44EA815447EA8357A4FBCE
:10060000076802958D0A05FB07854FEA932C04FBCA
:100610000C542705029D4FEA065847EA1637B5EBFA
:1006200008056EEB070C870E920E47EA811742EA27
:100630008312A7FB0201B6EB0B0164EB00042B0D48
:1006400043EA0C335E1844EB1C50DA465146E7FB94
:100650000201C5F313044FEA0B3343EA14534FEA84
:100660000432019C43EA0603A4F10C040294009CAA
:10067000CDE900B400F0D9F803B0BDE8F08F002058
:100680000146F9E72DE9F04D81EA030404F0004B3F
:1006900021F0004514464FF0000A23F0004150EAD3
:1006A000050220D054EA01021DD0C5F30A570246C4
:1006B000C5F31303C1F31300C1F30A5640F48015C8
:1006C00043F48013A7EB0608101BD64608F2FD384A
:1006D00073EB050002D308F1010801E092185B41B9
:1006E000B8F1000F03DA00200146BDE8F08D0020CC
:1006F0004FF48011064684460EE0171B73EB050786
:1007000005D3121B63EB050306434CEA010C4908B1
:100710004FEA300092185B4150EA0107EDD152EAEE
:10072000030012D082EA040083EA0501084305D0E1
:10073000101BAB4106D20122002306E000224FF03D
:10074000004302E06FF0010253101AEB06004CEB7D
:10075000085110EB0A0041EB0B01BDE8F04D00F031
:1007600055B8C1F30A52C1F3130140F2FF3341F40B
:1007700080119A4202DA00200146704740F233436A
:100780009A42A2F2334202DC5242FFF71BBEFFF74D
:100790000ABE000030B5041E71F1000404DB4FF006
:1007A0000044404264EB0101141E73F1000405DBB8
:1007B0001C464FF00043524263EB0403994208BFCA
:1007C000904230BD064C074D06E0E06840F0010362
:1007D00094E8070098471034AC42F6D3FFF760FD69
:1007E000D4960008F4960008202A06DBCB17203A9E
:1007F00041FA02F043EAE07306E041FA02F3D04026
:10080000C2F12002914008431946704710B5141EEA
:1008100073F1000408DA401C41F1000192185B41B9
:100820001A4301D120F0010010BD2DE9F04D924690
:100830009B4611B1B1FA81F202E0B0FA80F22032A7
:100840009046FFF7B0FD04460F4640EA0A0041EA31
:100850000B0153465A46084313D0114653EA010090
:1008600019D0C8F140025046FFF7ACFD05460E46D0
:10087000504659464246FFF796FD084305D00120F1
:1008800004E020463946BDE8F08D0020054346EAE5
:10089000E0762C4337430A986305E40AA0EB08008E
:1008A0000022FD0A44EA47540A3002D500200146DE
:1008B000E9E7010510196941DDE9084500196941B9
:1008C000BDE8F04DA2E730B58C1810F8012B12F0FE
:1008D0000F0301D110F8013B120906D110F8012BCA
:1008E00003E010F8015B01F8015B5B1EF9D101E048
:1008F00001F8013B521EFBD1A142E6D3002030BDDE
:10090000B0B50446006842F2001140F48070C4F2B1
:100910000201884204D142F20830C4F2020003E02E
:1009200046F20830C5F60200006810F4403F10D0CF
:1009300004F042FE61680546B1F5803F05D0B1F58F
:10094000403F22D0B1F5003F20D1080CB5FBF0F5B7
:100950001CE04FF40020002103F04EFE61680546C4
:10096000A1F580224FEAB2420A2A0FD8DFE802F04E
:10097000060606060606494B4D4F51006FF0010072
:1009800000EA5140B5FBF0F500E0AD0803F040FB94
:1009900041F2030188420DD8206842F60151C0F2AD
:1009A00031118D4281682CBF41F4807121F4807136
:1009B0008160B0BD4BF62140C0F2BE00854205D833
:1009C0002068816821F440718160B0BD47F6410024
:1009D000C0F27D10854203D820680122816808E0BA
:1009E00020684FF28101C0F2FA218D42816804D85B
:1009F000022262F309218160B0BD41F4407181603F
:100A0000B0BD2D09C2E76D09C0E7AD09BEE7ED092C
:100A1000BCE72D0ABAE7000070B5044600680D4631
:100A200006F09AF90646206806F072F930435CD069
:100A30002068C168890115D5617D012912D1217D08
:100A400001290FD10168490609D44DF60141C0F2D0
:100A50000C0100BF01393ED002685206FAD50125CB
:100A600040210160022D0FD006F076F918B1206800
:100A700006F062F918B1012D06D1042616E02068AF
:100A800006F0A6F9012DF8D0206806F041F930B142
:100A9000206806F051F910B9206806F03DF90426E7
:100AA000022D08BF0826032D08BF0C2603F0B8FA54
:100AB00021688968314218D0054603E020688068C3
:100AC000304212D003F0ACFA401B0628F6D320685F
:100AD00080683042F2D0606D40F010006065A06D1B
:100AE00040F00100A065012070BD002070BD000035
:100AF00010B5846B616D11F0500F616D05D0C906A2
:100B00000ED4E16CC96C884710BD41F4007060657B
:100B100020680168090707D4C068800716D10AE079
:100B2000204601F04DF810BD06F01EF970B12068A6
:100B3000C06880040AD4606D20F480706065606DC8
:100B4000C00403D4606D40F001006065204601F0F0
:100B50001BF810BD0000000080B5806B416D41F0B6
:100B600040014165816D41F00401816501F028F883
:100B700080BD00000000000080B5806B01F01CF813
:100B800080BD000000000000B0B50446006806F01B
:100B9000D3F80546206806F0D3F801464FF0000070
:100BA00085BB002908BFB0BD2068816801F00D0138
:100BB00001291CD106F078F820680321016003F0B8
:100BC0002FFA21688968C90701D10020B0BD054608
:100BD00004E000BF20688068C00712D003F020FA4C
:100BE000401B0328F6D320688068C007F2D0606DF0
:100BF00040F010006065A06D40F00100A06501208C
:100C0000B0BD0020B0BD000070B50446006806F01D
:100C100097F800281CBF002070BD20683F22C8F252
:100C200000028168114209D0606D40F010006065DB
:100C3000A06D40F00100A065012070BD06F048F8ED
:100C400003F0EEF942F2000546F20031C4F202056B
:100C5000226805F5807605F54073C5F60201B242BB
:100C600008BF1946AA42054608BF1946084606F0BD
:100C70004BF821680A46B14204BF42F20002C4F2B6
:100C80000202002818BF8A4203D121680868C00701
:100C900008D0002070BD00BF21680868C0074FF071
:100CA000000010D1084606F04BF810B9206806F095
:100CB0000FF803F0B5F9401B0328EDD32068006856
:100CC000C007E9D1B0E770BD80B541F22C20C2F277
:100CD00000400178002908BF80BD0021017040F26A
:100CE00000008122C2F200400146BFF34F8F62F341
:100CF0005F114EF65C72CEF2000200BF2039106028
:100D0000202900F12000F9D8BFF34F8FBFF36F8F78
:100D100006F052FC41F22C00C2F2004000F06CFBE5
:100D200006F036FC80BD0000FEE700000000000079
:100D300080B541F29420C2F2004001F0D1FD80BDA7
:100D400040F20F420168C4F20202914210DC6F22AD
:100D5000C4F20202914220DC3F22C4F2020291421C
:100D600036DC1022C4F20202914254D028224EE016
:100D700040F26F42C4F2020291421ADC40F23F425A
:100D8000C4F2020291422ADC40F21042C4F2020292
:100D9000914240D040F2284239E09F22C4F2020240
:100DA000914225DC7022C4F20202914233D08822A3
:100DB0002DE040F29F42C4F2020291421FDC40F259
:100DC0007042C4F20202914225D040F288421EE0F5
:100DD0004022C4F2020291421DD0582217E040F294
:100DE0004042C4F20202914215D040F258420EE055
:100DF000A022C4F2020291420DD0B82207E040F2D4
:100E0000B842C4F20202914205D040F2A042C4F2BC
:100E1000020291421AD1D0F800C06FF00F024AF6D8
:100E2000AB2352FA8CF2CAF6AA23A2FB033109A320
:100E30005F2AC1F302115B5C40F2FF312CEA010131
:100E4000C36588BF0431816508467047016821F099
:100E5000FF01F8E70006101600061016000000005B
:100E600010B545F257420168C5F6020291420EDC08
:100E700045F22F42C5F60202914217DC45F20842C4
:100E8000C5F60202914226D045F21C421FE045F20F
:100E90007F42C5F60202914211DC45F25842C5F686
:100EA0000202914217D045F26C4210E045F2304206
:100EB000C5F6020291420ED045F2444207E045F2E7
:100EC0009442C5F60202914205D045F28042C5F631
:100ED0000202914219D101784CF6CD42CCF6CC42B7
:100EE00045F600030839C5F60203A1FB021203F11F
:100EF0008001120903EB820302F01F020366012343
:100F0000416603FA02F1816610BD02784AF6AB230E
:100F1000CAF6AA234FF0080E103AA2FB032340F2B0
:100F20000F42C4F202024FEA131C914202F1AA04DA
:100F3000624688BF0EEB131240F60003A142C4F2D2
:100F4000020303F1800128BF6246D3E700000000DE
:100F500010B50279511E072988BF10BD45F2574CC4
:100F600045F6FC0E0368C5F6020CC5F6020E634595
:100F70000EF1440C0EDC45F22F44C5F60204A342E8
:100F800017DC45F20844C5F60204A34226D045F218
:100F90001C441FE045F27F44C5F60204A34211DC65
:100FA00045F25844C5F60204A34217D045F26C44FA
:100FB00010E045F23044C5F60204A3420ED045F2DB
:100FC000444407E045F28044C5F60204A34205D03C
:100FD00045F29444C5F60204A34209D10EEB820205
:100FE000C2660122C0F870C002FA01F1416710BD6B
:100FF00040F6FC0EC4F2020E0EF1440CEEE70000C7
:101000008169B1F5005F07D079B9816A022912D0F0
:10101000012916D079B112E0816A03290FD8DFE8DF
:1010200001F0020A021001207047816A03293CBFC7
:101030000120704703D1C06AC0F3006070470020F0
:101040007047C06AA0F1C070B0FA80F040097047E4
:1010500070B540F26F44D0F800E0C4F20204D0F85A
:1010600058C0A64519DC9F25C4F20205AE4531DC07
:101070005725C4F20205AE4556DC1025C4F2020520
:10108000AE4500F092802825C4F20205AE4500F07E
:101090008C804025C4F2020584E045F22F45C5F658
:1010A0000205AE452BDC40F2B745C4F20205AE4561
:1010B00048DC40F27045C4F20205AE4575D040F2FE
:1010C0008845C4F20205AE456FD040F2A045C4F297
:1010D000020567E040F22745C4F20205AE4540DC58
:1010E000A025C4F20205AE455FD0B825C4F20205C2
:1010F000AE455AD040F21045C4F2020552E045F226
:101100006B45C5F60205AE453CDC45F23045C5F6FB
:101110000205AE4549D045F24445C5F60205AE4547
:1011200043D045F258453BE05825C4F20205AE4590
:101130003BD07025C4F20205AE4536D08825C4F2F6
:1011400002052FE040F2B845C4F20205AE452CD0AE
:1011500045F20845C5F60205AE4526D045F21C45C8
:101160001EE040F22845C4F20205AE451DD040F213
:101170004045C4F20205AE4517D040F25845C4F2CE
:1011800002050FE045F26C45C5F60205AE450CD0F0
:1011900045F29445C5F60205AE4506D045F28045B8
:1011A000C5F60205AE4540F0C980456EC66E002EFC
:1011B000866E6E601CBFD0E91C566E60A64515DCBD
:1011C0009F24C4F20204A6452BDC5724C4F2020477
:1011D000A6454EDC1024C4F20204A64576D028248D
:1011E000C4F20204A64571D040246BE045F22F44BE
:1011F000C5F60204A64527DC40F2B744C4F2020457
:10120000A64542DC40F27044C4F20204A6455DD01B
:1012100040F28844C4F20204A64557D040F2A044EC
:1012200050E040F22744C4F20204A6453CDCA0246E
:10123000C4F20204A64549D0B824C4F20204A6456B
:1012400044D040F210443DE045F26B44C5F6020440
:10125000A6454FDC45F23044C5F60204A6455BD0F6
:1012600045F24444C5F60204A64555D045F258441B
:101270004EE05824C4F20204A64527D07024C4F2DC
:101280000204A64522D088241CE040F2B844C4F2EF
:101290000204A6451AD045F20844C5F60204A64544
:1012A0003AD045F21C4433E040F22844C4F2020430
:1012B000A6450BD040F24044C4F20204A64505D036
:1012C00040F25844C4F20204A64537D104683F25D1
:1012D0008668C06D00F01F00402E05FA00F0CCF8C3
:1012E0000800206820F480202060636021D0A16085
:1012F000E26070BD45F26C44C5F60204A6450BD011
:1013000045F28044C5F60204A64505D045F2944452
:10131000C5F60204A64511D10468C66D806806F0C2
:101320001F060125402805FA06F6CCF80460636024
:1013300002D1A260E16070BDA160E26070BD0000FA
:10134000704700000000000080B5202002F07CFD06
:1013500080BD00000000000005A407A5EFF3108089
:1013600072B600BF2046294605F08AFCFAE700BFA6
:1013700074332E74787400004552524F52000000AE
:1013800044F60C00C5F60200016841F0020101605C
:1013900050F8081C8904FBD57047000000000000CD
:1013A00020281CD141F21000C2F200400078012830
:1013B00018BF704741F22800C2F2004001780129AD
:1013C00002D100210170704741F21800C2F20040C2
:1013D000D0E90012013142F10002C0E90012704769
:1013E00080B541F210000021C2F2004001700020DF
:1013F00000F06AF880BD00002DE9F04141F21007CD
:101400000446C2F20047397861B341F22406C2F2C1
:1014100000463078002842D002F002FE41F220015E
:10142000C2F200410968401AB0F57A7F18D341F240
:101430001800C2F20040D0E9005828464146FEF7A5
:101440008EFF42F227320021521B206071EB080010
:10145000317038BFBDE8F0810020397000F034F8F9
:10146000BDE8F08100F0DCF8B5EE400AF1EE10FACC
:10147000F6DB9FED141A84ED000AB4EE410AF1EE9A
:1014800010FAEDDD01203870012000F01DF841F266
:1014900024000021C2F200400170BDE8F08141F259
:1014A00018000021C2F20040C0E9001102F0B8FDAE
:1014B00041F22001C2F20041086001203070BDE815
:1014C000F08100BF00E02B46F0B587B00027CDE9E2
:1014D0000577CDE90377029788B341F20C34C2F265
:1014E0000044204604F0C0FD0021204604F098FF8F
:1014F00044F2E0400024C5F60200C5F602042025AF
:10150000016841F001010160006802A900F00100DA
:10151000019001984FF48810039002200490204617
:10152000029502F09DFC88202169C5F60000056047
:10153000172002F04DFE172002F052FE65E044F243
:10154000E0451720C5F6020502F046FE172002F01E
:101550003FFE882041F20C34C5F60000C2F2004480
:1015600020260660204604F07FFD0021204604F07E
:1015700057FF55F8500C40F0010045F8500C01970A
:10158000019880087C2806D80198013001900198C4
:10159000B0F5FA7FF8D355F8500C20F0010045F86B
:1015A000500C002084F83D0005F0CAFD012084F8AD
:1015B0003D00296841F0010129602968002501F0FA
:1015C00001010191C5F60205019902210296CDE9BA
:1015D00003110321CDE9051002A9284602F040FCC1
:1015E000286920686FF003010161204604F0E4FCE3
:1015F00008B1FFF7B1FE41F20C300021C2F2004009
:1016000004F056FE08B1FFF7A7FE41F228000121C1
:10161000C2F20040017007B0F0BD00000000000001
:10162000B0B541F20C34C2F2004420680169890768
:1016300005D40169C90719D1BFEE000AB0BD002168
:101640002046002504F03CFF21686FF002020A6189
:101650006FF001020A6141F22801C2F200410A78EA
:10166000012A09D1BFEE000A0D70B0BD9FED090A35
:101670006FF001010161B0BD48B101309FED061A64
:1016800000EE100AB8EE400A81EE000AB0BD9FEDF0
:10169000010AB0BD00000000C0E1644C0000000081
:1016A0002DE9F04182B0044690F85000012803D1A2
:1016B000022002B0BDE8F081012084F85000002033
:1016C0000190009042F20007C4F202072068B8427D
:1016D0000BD107F580780D46404605F041FB0646E4
:1016E000206805F03DFB30430AD0606D40F02000DB
:1016F00060650120002184F8501002B0BDE8F0813F
:1017000046F200002168C5F602004145064608BFC2
:101710003E46B94208BF0E462A6841F48071D6F8A9
:101720000833002A23F4404215D042F2001C6B68B3
:10173000C4F2020C614542EA0301C6F808131BD14A
:10174000384605F001FB0746404605F0FDFA3843F0
:10175000B0B10020CEE742F20013C6F80823C4F26D
:101760000203994216D1384605F0EEFA0546404686
:1017700005F0EAFA28430FE005F0E6FA0028E8D180
:10178000D6F8080340F61F7188432968AA68084301
:10179000104309E005F0D8FA08B10020AAE7D6F80E
:1017A000080340F61F718843C6F808030020A1E72C
:1017B0002DE9F04782B000220192044690F85000D3
:1017C000012803D1022002B0BDE8F087012084F88F
:1017D000500020680D4605F0BFFA28B1606D40F05A
:1017E000200060650120EDE02A68002A0FD492FAFB
:1017F000A2F00123B0FA80F0110308BF900E216817
:1018000000F01F0003FA00F0CB691843C86120689C
:10181000696805F0B9FA206805F09EFA0646206866
:1018200005F076FA304368D120682968AA6805F087
:10183000EBFA41F20000C5F60040006800F070408D
:10184000B0F1805F06D120686A690E21C06801EAA4
:1018500050030CE02068C1686A69C068C9064FEA95
:10186000500002D400F00E0301E000F008032969E3
:101870002068042928D1016E2A6801F0F841B1EBF3
:10188000826F4FEA826103D1026E22F0004202664B
:10189000426E02F0F8428A4203D1426E22F00042C8
:1018A0004266826E02F0F8428A4203D1826E22F0D2
:1018B00000428266C26E02F0F8428A421DD1C16EB9
:1018C00021F00041C16618E002FA03F32A6805F02E
:1018D000E3FA687E0138B0FA80F120684A09296984
:1018E000D20705F0E5FA287E0138B0FA80F12068C9
:1018F0004A092969D20205F0C3FA206805F020FAE6
:1019000008B100205EE0002620682968EA68C4F279
:10191000527605F08DFAE86806F52D0188424CD123
:1019200042F200112068C4F20201884226D042F23D
:101930000001C4F2020188423BD11F222968C1F292
:10194000F042914220DD40F2FF72C2F630629142D5
:1019500040F3838040F60002C2F63062914200F00C
:10196000D58041F20002C3F26022914200F0AD80C6
:101970000022C4F2213291421CD0CCE01F222968FF
:10198000C1F2F042914262DC0722C0F690429142DD
:1019900073DC0222C0F23042914200F0A4800422A3
:1019A000C0F66002914240F0B6804026C1F6201693
:1019B00000E00026314605F017FA2868B0F1FF3F35
:1019C00006DD0020002184F8501002B0BDE8F08749
:1019D00046F2000842F20007C5F60208C4F2020708
:1019E00008F54079216807F5807607F5407248468A
:1019F000B14208BF1046B94208BF104605F080F951
:101A0000216842F2001241F48071C4F20202914254
:101A1000824608D1384605F093F90746304605F06E
:101A20008FF9384302E0404605F08AF900287FF438
:101A3000D5AE5FEA0A2029682ED40020CCF6843087
:101A4000814229D1206840456FD00020BAE740F29A
:101A5000FF72C2F6306291422BDC2022C1F2F042CA
:101A6000914237D040F20042C2F60022914252D158
:101A700040F60006C2F630669CE70822C0F69042A7
:101A800091422CD01022C1F2C002914243D140F2C7
:101A90000016C2F280168DE75FEACA1025D4002036
:101AA000CCF25270814220D1206840455ED00020A7
:101AB00088E740F60002C2F63062914226D041F239
:101AC0000002C3F26022914225D142F20006C3F225
:101AD00090666FE740F20026C2F2B0566AE78026B1
:101AE000C1F6505666E7012664E75FEA4A204FF0E8
:101AF00000003FF567AF0022CCF6B87291427FF448
:101B000061AF2068404536D000205BE741F2000617
:101B1000C3F260264EE700220026C4F684329142CA
:101B200004BF0026C4F6B87644E74AF400014846EC
:101B300005F09EF941F2000042F66351C2F2004006
:101B4000C0F23E5100688009A0FB01018809022112
:101B500001EB40000190019858B1019801380190C3
:101B6000019800284FF00000F7D12BE74AF0807170
:101B700003E0002026E74AF48001484605F078F9A2
:101B800000201FE70000000042F200010068C4F2DC
:101B90000201884241F22900C2F2004001D1012134
:101BA00001700078012818BF704741F22C200121F4
:101BB000C2F2004001707047704700000000000052
:101BC0007047000000000000F0B581B00446002816
:101BD0004FF00000009019D0606D30B9204600F041
:101BE0000BF90020A06584F85000206805F0A0F8EB
:101BF00010B1206805F064F8206805F0A9F838B144
:101C0000206805F0A5F8E0B1002523E00125E3E018
:101C1000206805F069F841F2000042F66351C2F213
:101C20000040C0F23E5100688009A0FB0101012084
:101C300000EB9110009000980028E1D00098013846
:101C4000F8E7606D012540F010006065A06D40F080
:101C50000100A065206805F07FF8616D01F01001BA
:101C60000843606D03D040F010000125B3E020F47C
:101C7000817002306065206805F062F858BB20680A
:101C800042F2001140F48070C4F2020142F20006F8
:101C90008842C4F2020640F0A280304605F050F8B7
:101CA000074606F5807005F04BF8384398B906F5FD
:101CB000807006F54072216846F20003C5F6020303
:101CC0008142104618BF03F54070B142616808BFF9
:101CD000104605F0C5F802F09BF941F20401884274
:101CE0000CD3A068102809D1607D216B227F41EAC6
:101CF000403040EA024040F01C0108E0607D216B6A
:101D0000227F41EA4030A168084340EA0241207F37
:101D1000012806D1206A0022CFF6FE7202EB404075
:101D20000143606A28B100F47870A26A084340EA6F
:101D3000020120684CF20303CFF6F073C2681A4028
:101D40001143C16005F008F80646206804F0E0FF82
:101D5000304331D1217D2068E26A44F20307C36831
:101D600042EA813123EA07021143C16094F8381036
:101D70000129016914D14FF61E020027CFF6004257
:101D8000CFF6FF771140D4E90F231943636C07EBBB
:101D900002421143A26C1943114341F0010101E0D9
:101DA00021F0010101610169626B21F07041114371
:101DB00001612046FEF7A4FD2068E1680129026B5D
:101DC00022F00F0102D1A269013A114301630121FE
:101DD000606D61F301006065284601B0F0BD46F218
:101DE0000000C5F6020004F0ABFF00287FF473AFDB
:101DF0005DE700000000000070B5B8B0044602A81E
:101E0000C0210025CDE93655CDE934553395C0269E
:101E1000FEF79AFA42F200012068C4F202018842F9
:101E200001D038B070BD4FF4002002900220049021
:101E30000C210395CDE90510CDE907002020099676
:101E4000CDE90A0502A82B9502F082FD08B1FFF743
:101E500083FA44F2D8400026C5F60200016841F03A
:101E600020010160016801F0200101910199816860
:101E700041F001018160806833A900F00100019008
:101E8000019840203390032034900020C5F60200D2
:101E9000359601F0E5FF41F294251020C2F200458D
:101EA000C4F2020028600920C5E901064FF48060F1
:101EB00028614FF4006068614FF40050EE60C5E99E
:101EC00006062846C5E9086601F0DAFA08B1FFF708
:101ED00043FAE564AC6338B070BD00000000000058
:101EE0002DE9F04742F200060446C4F202060368F8
:101EF00046F2003006F5807706F54075C5F602001B
:101F0000BB42904608BF2846B342894608BF2846D0
:101F100004F0FAFE8246206804F01EFF18B994F817
:101F20005000012802D10220BDE8F087BAF1090F64
:101F30004FF0010084F8500058D800FA0AF040F23F
:101F40002121084252D02046FEF75EFE30B1054600
:101F5000002084F850002846BDE8F0872068616DB5
:101F600040F60172B84221EA020118BF0646BAF1F2
:101F7000000F01F58071616518BF864203D1616D64
:101F800021F480116165616D40F67937C9044FF025
:101F9000000144BFA16D21F00601C0F60007002238
:101FA000A16540F6F121E36CC0F60001C3E90F170B
:101FB00040F65937E16AC0F60007DF641C2303606E
:101FC00084F85020426842F01002426004F0D4FECF
:101FD0002168E06C40314A46434601F001FD054668
:101FE000206804F0E9FE2846BDE8F087002084F868
:101FF00050000120BDE8F087B0B5044690F85000CD
:10200000012801D10220B0BD012084F85000032135
:102010002046FEF701FD054618BB2168E06CCA6842
:1020200022F00302CA6090F83510022907D100F0AF
:102030001FF8054618B1606D40F0400060652068EB
:10204000416821F0100141602046FEF79DFD002D02
:1020500008BF05462DB9606D41F20111884301307A
:102060006065002084F850002846B0BD00000000E4
:102070002DE9F041044601F0D3FF04B3054694F87E
:10208000350002281ED140F20F472068C4F2020733
:1020900040F26F48B842C4F2020817DC6F21C4F264
:1020A0000201884223DC3F21C4F20201884239DC6C
:1020B0001021C4F20201884258D0282151E00120A9
:1020C000BDE8F081802060650120ABE240451ADC6C
:1020D00040F23F41C4F2020188422ADC40F2104142
:1020E000C4F20201884241D040F2284139E09F21E8
:1020F000C4F20201884225DC7021C4F20201884248
:1021000034D088212DE040F29F41C4F20201884280
:102110001FDC40F27041C4F20201884226D040F236
:1021200088411EE04021C4F2020188421ED058219D
:1021300017E040F24041C4F20201884216D040F25A
:1021400058410EE0A021C4F2020188420ED0B8210D
:1021500007E040F2B841C4F20201884206D040F2E2
:10216000A041C4F20201884240F0EA812668316849
:1021700021F01E02314641F8142B6FF080020B68EB
:10218000404502EA03020A6019DC9F21C4F2020101
:10219000884231DC5721C4F20201884256DC10210A
:1021A000C4F20201884200F091802821C4F20201A9
:1021B000884200F08B804021C4F2020184E045F2A5
:1021C0002F41C5F6020188422BDC40F2B741C4F230
:1021D0000201884248DC40F27041C4F202018842A8
:1021E00074D040F28841C4F2020188426ED040F2BD
:1021F000A041C4F2020167E040F22741C4F20201AB
:10220000884240DCA021C4F2020188425ED0B8219D
:10221000C4F20201884259D040F21041C4F20201D6
:1022200052E045F26B41C5F6020188423CDC45F2C2
:102230003041C5F60201884248D045F24441C5F616
:102240000201884242D045F258413BE05821C4F295
:10225000020188423AD07021C4F20201884235D08E
:102260008821C4F202012FE040F2B841C4F2020119
:1022700088422BD045F20841C5F60201884225D09C
:1022800045F21C411EE040F22841C4F2020188429E
:102290001CD040F24041C4F20201884216D040F204
:1022A0005841C4F202010FE045F26C41C5F602014B
:1022B00088420BD045F29441C5F60201884205D010
:1022C00045F28041C5F60201884269D1216EB842CB
:1022D0000A6822F480720A6010DC6F21C4F20201E5
:1022E00088421CDC3F21C4F20201884232DC10210A
:1022F000C4F20201884252D028214AE040451ADC4B
:1023000040F23F41C4F2020188422ADC40F210410F
:10231000C4F20201884242D040F2284139E09F21B4
:10232000C4F20201884225DC7021C4F20201884215
:1023300035D088212DE040F29F41C4F2020188424D
:102340001FDC40F27041C4F20201884227D040F203
:1023500088411EE04021C4F2020188421FD058216A
:1023600017E040F24041C4F20201884217D040F227
:1023700058410EE0A021C4F2020188420FD0B821DA
:1023800007E040F2B841C4F20201884207D040F2AF
:10239000A041C4F20201884208BF206800E0206822
:1023A000016821F0010101603068C0070BD001F025
:1023B00037FE401B0628F7D320206065032084F8F1
:1023C000350001202EE12068B84210DC6F21C4F2F4
:1023D000020188421CDC3F21C4F20201884232DC47
:1023E0001021C4F20201884250D028214AE0404521
:1023F0001ADC40F23F41C4F2020188422ADC40F27A
:102400001041C4F20201884240D040F2284139E034
:102410009F21C4F20201884225DC7021C4F202012E
:10242000884233D088212DE040F29F41C4F202015E
:1024300088421FDC40F27041C4F20201884225D07C
:1024400040F288411EE04021C4F2020188421DD0C2
:10245000582117E040F24041C4F20201884215D0F1
:1024600040F258410EE0A021C4F2020188420DD092
:10247000B82107E040F2B841C4F20201884205D019
:1024800040F2A041C4F2020188425ED1D4E91612A2
:1024900002F01F023F2303FA02F28A6040455EDC2D
:1024A0009F21C4F20201884214DC5721C4F20201C8
:1024B000884226DC1021C4F20201884200F0A2808A
:1024C0002821C4F20201884200F09C804021C4F21D
:1024D000020195E040F22741C4F2020188421EDC6D
:1024E000A021C4F20201884200F08C80B821C4F21D
:1024F0000201884200F0868040F21041C4F20201DD
:102500007EE05821C4F2020188427BD07021C4F2DF
:102510000201884276D08821C4F2020170E040F2C4
:102520002841C4F2020188426CD040F24041C4F21A
:102530000201884266D040F25841C4F202015FE0D5
:1025400021686FF00E020E4619E6D4E9161202F069
:102550001F02012303FA02F24A604045A0DD45F262
:102560002F41C5F60201884216DC40F2B741C4F2A1
:102570000201884225DC40F27041C4F20201884227
:1025800040D040F28841C4F2020188423AD040F281
:10259000A041C4F2020133E045F26B41C5F60201ED
:1025A00088421DDC45F23041C5F60201884229D03F
:1025B00045F24441C5F60201884223D045F2584114
:1025C0001CE040F2B841C4F2020188421AD045F240
:1025D0000841C5F60201884214D045F21C410DE0C5
:1025E00045F26C41C5F6020188420BD045F2944198
:1025F000C5F60201884205D045F28041C5F60201C8
:1026000088420BD1616EA26EE06E4A6030B1016803
:1026100021F480710160D4E91C014160012084F83B
:1026200035000020002184F83410BDE8F08100005E
:1026300080B5D8B190F83510022919D140F20F4277
:102640000168C4F20202914216DC6F23C4F2020355
:10265000994226DC3F23C4F2020399423CDC10235A
:10266000C4F2020399425AD0282354E0012080BDCD
:1026700080214165012080BD40F26F43C4F2020316
:1026800099421ADC40F23F43C4F2020399422ADC29
:1026900040F21043C4F20203994240D040F2284372
:1026A00039E09F23C4F20203994225DC7023C4F26F
:1026B0000203994233D088232DE040F29F43C4F2B5
:1026C000020399421FDC40F27043C4F202039942B4
:1026D00025D040F288431EE04023C4F20203994211
:1026E0001DD0582317E040F24043C4F20203994240
:1026F00015D040F258430EE0A023C4F202039942E1
:102700000DD0B82307E040F2B843C4F20203994267
:1027100005D040F2A043C4F20203994270D1914225
:102720004FF0040280F8352010DC6F22C4F2020260
:10273000914220DC3F22C4F20202914236DC102298
:10274000C4F20202914254D028224EE040F26F427D
:10275000C4F2020291421ADC40F23F42C4F2020289
:1027600091422ADC40F21042C4F20202914240D06F
:1027700040F2284239E09F22C4F20202914225DC55
:102780007022C4F20202914233D088222DE040F23E
:102790009F42C4F2020291421FDC40F27042C4F236
:1027A0000202914225D040F288421EE04022C4F24B
:1027B000020291421DD0582217E040F24042C4F27A
:1027C0000202914215D040F258420EE0A022C4F21B
:1027D000020291420DD0B82207E040F2B842C4F2A2
:1027E0000202914205D040F2A042C4F2020291429C
:1027F00024D10068016821F001010160002080BD42
:102800000268136823F00E03136045F25742C5F6C1
:10281000020291420A6822F001020A6014DC45F2C9
:102820002F42C5F6020291421DDC45F20842C5F670
:10283000020291422CD045F21C4225E0086820F0AB
:1028400001000860002080BD45F27F42C5F602020B
:10285000914211DC45F25842C5F60202914217D06E
:1028600045F26C4210E045F23042C5F60202914258
:102870000ED045F2444207E045F29442C5F602020A
:10288000914205D045F28042C5F6020291421AD12A
:10289000D0E9181CD0E916E30A6822F480720A60B5
:1028A00003F01F01012202FA01F1CEF80410816E3B
:1028B000CCF80410C16E31B10A6822F480720A604B
:1028C000D0E91C124A60012180F83510026D002108
:1028D00080F834100AB190470021084680BD0000FE
:1028E0002DE9F04381B00021009141F2000104463E
:1028F000C2F2004140F26F49A56DC4F202090868B6
:1029000048F2B511C1F64E312668A0FB01084E45CC
:102910002F682A6815DC9F20C4F2020086422BDC57
:102920005720C4F2020086424FDC1020C4F202009D
:10293000864278D02820C4F20200864273D040201C
:102940006CE045F22F40C5F60200864227DC40F2DB
:10295000B740C4F20200864243DC40F27040C4F249
:10296000020086425FD040F28840C4F202008642F4
:1029700059D040F2A04051E040F22740C4F202009A
:1029800086423DDCA020C4F2020086424BD0B82033
:10299000C4F20200864246D040F210403EE045F2CA
:1029A0006B40C5F60200864274DC45F23040C5F645
:1029B0000200864200F0818045F24440C5F60200E4
:1029C00086427AD045F2584072E05820C4F20200A4
:1029D000864228D07020C4F20200864223D088208C
:1029E0001CE040F2B840C4F2020086421BD045F21F
:1029F0000840C5F6020086425FD045F21C4057E011
:102A000040F22840C4F2020086420CD040F240401E
:102A1000C4F20200864206D040F25840C4F20200DE
:102A2000864240F0ED84E06D00F01F01082000FABE
:102A300001F23A4200F0148140F20F40C4F2020069
:102A4000864213DC6F20C4F20200864200F38E80BF
:102A50003F20C4F20200864200F3CF801020C4F26F
:102A60000200864200F0ED802820E5E04E4500F3AC
:102A7000898040F23F40C4F20200864200F3C480E5
:102A800040F21040C4F20200864200F0DA8040F2C8
:102A90002840D1E045F26C40C5F6020086420CD0D9
:102AA00045F28040C5F60200864206D045F29440C9
:102AB000C5F60200864240F0A3842068E16D01F073
:102AC0001F010368580727D50420884010EA020731
:102AD00022D01904686000F18780980600F18C8488
:102AE00040F20F40C4F20200864200F3AB836F2035
:102AF000C4F20200864200F3E6833F20C4F20200E3
:102B0000864200F350841020C4F20200864200F096
:102B10006D84282000F066BC980742D502208840CA
:102B200010EA02073DD01904686000F10E83980690
:102B300000F1988440F20F40C4F20200864200F394
:102B4000AF836F20C4F20200864200F311843F205D
:102B5000C4F20200864200F356841020C4F2020040
:102B6000864200F07384282000F06CBC9F20C4F2E1
:102B70000200864251DC7020C4F20200864260D01E
:102B8000882059E040F29F40C4F2020086424BDCAC
:102B900040F27040C4F20200864252D040F28840B7
:102BA0004AE0180740F12C8408208840104000F0CB
:102BB000278440F20F40C4F20200864200F32C83C7
:102BC0006F20C4F20200864200F34F833F20C4F21C
:102BD0000200864200F393831020C4F20200864272
:102BE00000F0B1832820A9E3D80300F1B482A16CDE
:102BF000002940F00C8300F003BC4020C4F2020026
:102C000086421ED0582017E040F24040C4F2020035
:102C1000864216D040F258400EE0A020C4F20200D6
:102C200086420ED0B82007E040F2B840C4F202005D
:102C3000864206D040F2A040C4F20200864240F034
:102C40008E82206804230068184209D02068036837
:102C500023F004030360AA60606D40F0010060652A
:102C6000012000FA01F23A4270D040F20F40C4F263
:102C70000200864210DC6F20C4F2020086421CDC97
:102C80003F20C4F20200864232DC1020C4F202006F
:102C9000864251D028204AE04E451ADC40F23F409F
:102CA000C4F2020086422ADC40F21040C4F2020064
:102CB000864241D040F2284039E09F20C4F2020011
:102CC000864225DC7020C4F20200864234D088207F
:102CD0002DE040F29F40C4F2020086421FDC40F229
:102CE0007040C4F20200864226D040F288401EE0C6
:102CF0004020C4F2020086421ED0582017E040F265
:102D00004040C4F20200864216D040F258400EE025
:102D1000A020C4F2020086420ED0B82007E040F2A4
:102D2000B840C4F20200864206D040F2A040C4F28D
:102D30000200864240F016822068406900F0800060
:102D400020B1AA60606D40F002006065042000FAC6
:102D500001F23A4270D040F20F40C4F202008642C3
:102D600010DC6F20C4F2020086421CDC3F20C4F25B
:102D70000200864232DC1020C4F20200864251D0AA
:102D800028204AE04E451ADC40F23F40C4F20200DF
:102D900086422ADC40F21040C4F20200864241D052
:102DA00040F2284039E09F20C4F20200864225DC30
:102DB0007020C4F20200864234D088202DE040F218
:102DC0009F40C4F2020086421FDC40F27040C4F211
:102DD0000200864226D040F288401EE04020C4F225
:102DE000020086421ED0582017E040F24040C4F254
:102DF0000200864216D040F258400EE0A020C4F2F5
:102E0000020086420ED0B82007E040F2B840C4F27B
:102E10000200864206D040F2A040C4F20200864280
:102E200040F0A6812068006800F0020020B1AA608E
:102E3000606D40F004006065102000FA01F1394235
:102E40007ED040F20F40C4F20200864210DC6F20B8
:102E5000C4F2020086421CDC3F20C4F2020086421B
:102E600032DC1020C4F20200864251D028204AE011
:102E70004E451ADC40F23F40C4F2020086422ADC92
:102E800040F21040C4F20200864241D040F2284095
:102E900039E09F20C4F20200864225DC7020C4F293
:102EA0000200864234D088202DE040F29F40C4F2D8
:102EB000020086421FDC40F27040C4F202008642EB
:102EC00026D040F288401EE04020C4F20200864234
:102ED0001ED0582017E040F24040C4F20200864263
:102EE00016D040F258400EE0A020C4F20200864204
:102EF0000ED0B82007E040F2B840C4F2020086428B
:102F000006D040F2A040C4F20200864240F0368172
:102F1000266808223068104212D0A9602068016833
:102F20004903016806D4C90506D4016821F00801E7
:102F3000016001E008034FD4216C09B120468847A5
:102F4000E06D202100F01F008140394200F0AE808A
:102F500040F20F432268C4F202039A4210DC6F234E
:102F6000C4F202039A421CDC3F23C4F202039A42D9
:102F700036DC1023C4F202039A4255D028234EE0D7
:102F80004A451ADC40F23F43C4F202039A422EDC67
:102F900040F21043C4F202039A4245D040F2284363
:102FA0003DE09F23C4F202039A4229DC7023C4F25D
:102FB00002039A4238D0882331E040F29F43C4F2A2
:102FC00002039A4223DC40F27043C4F202039A42A5
:102FD0002AD040F2884322E0A16C0029AED1AFE7AD
:102FE0004023C4F202039A421ED0582317E040F255
:102FF0004043C4F202039A4216D040F258430EE016
:10300000A023C4F202039A420ED0B82307E040F294
:10301000B843C4F202039A4206D040F2A043C4F27D
:1030200002039A4240F0AC802268102312681A42D0
:103030003CD0A96094F835202168042A0A681DD183
:1030400022F016020A604A6922F080024A61226C6C
:103050000AB9A26C1AB10A6822F008020A603F217C
:1030600001FA00F0A860012084F83500216D0020ED
:10307000002984F8340040F0CA80C1E15003086898
:103080000CD4C0050ED4086820F0100008600120A0
:1030900084F83500002084F8340003E0000301D4F4
:1030A000616C00E0E16B09B120468847606D002843
:1030B00000F0A681606DC00700F0A580042084F8B0
:1030C000350040F20F412068C4F20201884210DC52
:1030D0006F21C4F2020188421CDC3F21C4F20201CC
:1030E00088424FDC1021C4F2020188426FD02821AF
:1030F00067E048451ADC40F23F41C4F202018842D1
:1031000047DC40F21041C4F2020188425FD040F235
:10311000284156E09F21C4F20201884242DC70211E
:10312000C4F20201884252D088214AE040F29F4115
:10313000C4F2020188423CDC40F27041C4F2020158
:10314000884244D040F288413BE0D80376D4616C99
:1031500000295CD154E1216C002958D150E10823A9
:10316000304670E53068002000287FF4EAADEDE5D8
:103170003068002000287FF45AAE5DE60422C9E6DC
:10318000022353E74021C4F2020188421FD0582194
:1031900017E040F24041C4F20201884217D040F2E9
:1031A00058410EE0A021C4F2020188420FD0B8219C
:1031B00007E040F2B841C4F20201884207D040F271
:1031C000A041C4F20201884208BF206800E02068E4
:1031D0004FEA9821026822F0010202600098013053
:1031E0000090884203D820680068C007F6D12068A4
:1031F0000068C0074FF0030008BF012084F83500C5
:10320000002084F83400E16C002900F0F9802046A9
:10321000884701B0BDE8F0834E4532DC40F23F40C4
:10322000C4F20200864271DC40F21040C4F2020097
:10323000864200F0888040F228407FE0E16B002960
:10324000E5D1DDE04E454BDC40F23F40C4F20200E8
:10325000864200F3AF8040F21040C4F20200864282
:1032600000F0C48040F22840BCE09F20C4F202007D
:10327000864254DC7020C4F20200864263D088206B
:103280005CE040F29F40C4F2020086424EDC40F215
:103290007040C4F20200864255D040F288404DE0B2
:1032A0004E4571DC40F23F40C4F20200864200F31A
:1032B000B18040F21040C4F20200864200F0C680A5
:1032C00040F22840BEE09F20C4F2020086427ADC31
:1032D0007020C4F20200864200F08880882081E0DD
:1032E00040F29F40C4F20200864273DC40F270401C
:1032F000C4F20200864279D040F2884072E0402059
:10330000C4F2020086421ED0582017E040F240402E
:10331000C4F20200864216D040F258400EE0A020CF
:10332000C4F2020086420ED0B82007E040F2B84056
:10333000C4F20200864206D040F2A040C4F202006D
:10334000864240F0948026686FF01C02306810407E
:103350003060012000FA01F16960606584F8350091
:103360000020E16C84F8340000297FF450AF47E07E
:103370009F20C4F20200864255DC7020C4F2020095
:10338000864263D088205DE040F29F40C4F2020094
:1033900086424FDC40F27040C4F20200864255D0B3
:1033A00040F288404EE04020C4F2020086421DD028
:1033B000582017E040F24040C4F20200864215D087
:1033C00040F258400EE0A020C4F2020086420DD028
:1033D000B82007E040F2B840C4F20200864205D0AF
:1033E00040F2A040C4F20200864243D126686FF04A
:1033F0000801306808403060216C00297FF407AF75
:1034000001B0BDE8F0834020C4F2020086421DD026
:10341000582017E040F24040C4F20200864215D026
:1034200040F258400EE0A020C4F2020086420DD0C7
:10343000B82007E040F2B840C4F20200864205D04E
:1034400040F2A040C4F20200864216D126686FF016
:103450001401306808403060012084F835000020F5
:1034600084F83400E16B00297FF4D1AEC8E76FF037
:103470000E026BE76FF00401BBE76FF00A01E8E7AB
:103480002DE9F04381B0044600F0CAFD002C00F0A5
:10349000738140F26F4805462068C4F20208404537
:1034A00015DC9F21C4F2020188422BDC5721C4F2B3
:1034B0000201884251DC1021C4F2020188427AD014
:1034C0002821C4F20201884275D040216EE045F205
:1034D0002F41C5F60201884227DC40F2B741C4F211
:1034E0000201884245DC40F27041C4F20201884288
:1034F00061D040F28841C4F2020188425BD040F2C0
:10350000A04153E040F22741C4F2020188423FDC6F
:10351000A021C4F2020188424DD0B821C4F20201B8
:10352000884248D040F2104140E045F26B41C5F678
:103530000201884200F3908045F23041C5F6020155
:10354000884200F09C8045F24441C5F60201884261
:1035500000F0958045F258418CE05821C4F20201F8
:10356000884228D07021C4F20201884223D08821E9
:103570001CE040F2B841C4F2020188421BD045F27F
:103580000841C5F60201884279D045F21C4171E03C
:1035900040F22841C4F2020188420CD040F240417E
:1035A000C4F20201884206D040F25841C4F202013E
:1035B000884240F0118240F20F420221C4F202021E
:1035C00084F8351090424FF0000184F8341012DC7A
:1035D0006F21C4F20201884220DC3F21C4F20201C3
:1035E000884200F391801021C4F20201884200F069
:1035F000B0802821A7E040451EDC40F23F41C4F2E4
:103600000201884200F3878040F21041C4F20201B7
:10361000884200F09E8040F2284194E09F21C4F24D
:103620000201884200F380807021C4F202018842C6
:1036300000F08F80882186E040F29F41C4F20201B1
:10364000884278DC40F27041C4F20201884200F006
:10365000808040F2884176E045F26C41C5F6020177
:1036600088420CD045F28041C5F60201884206D05E
:1036700045F29441C5F60201884240F0AD8104F163
:10368000080E022084F8350000209EE80640A1F1D3
:10369000800384F83400B3FA83F320685B0940297F
:1036A000D4E90579D4E9076C05684FEA83336FF3F1
:1036B000101508BF102345EAD2014AF6F832194323
:1036C000CAF2FD7241EADE014CF6CD4341EAD70170
:1036D000024441EAD901CCF6CC4341EAD601A2FB2F
:1036E000032341EA1C1101606FF0030000EA93001C
:1036F000E0652046FDF724FBE16D012201F01F018A
:1037000002FA01F141609BE04021C4F202018842CB
:103710001FD0582117E040F24041C4F20201884214
:1037200017D040F258410EE0A021C4F202018842B5
:103730000FD0B82107E040F2B841C4F2020188423C
:1037400007D040F2A041C4F20201884208BF2068BD
:1037500000E02068016821F00101016027683868F5
:10376000C0070DD000F05CFC401B0628F6D32020DB
:103770006065032084F83500012001B0BDE8F083C6
:1037800048F23F0104F108053868CFF6106108409F
:103790002ECD0843A1691043E2691843236A05430B
:1037A000606A2943042841EA020141EA030103D186
:1037B000D4E90B231143194341F20002C5F600423C
:1037C0001268B2F1005F17D36268A2F12903202BBF
:1037D00006D23F25CCF2C03525FA03F3DB0706D12C
:1037E000A2F14F030022042B38BF012200E0012286
:1037F000002A18BF41F4801139600428796921F04A
:10380000070141EA000510D1D4E90A1045EA010593
:1038100058B12046FDF7F4FB38B140206065012027
:1038200084F8350001B0BDE8F08320467D61FDF7E6
:1038300087FAE16D3F2201F01F0102FA01F1816078
:103840002068404519DC9F21C4F20201884231DC26
:103850005721C4F20201884256DC1021C4F2020151
:10386000884200F091802821C4F20201884200F0D1
:103870008B804021C4F2020184E045F22F41C5F65D
:10388000020188422BDC40F2B741C4F202018842B7
:1038900048DC40F27041C4F20201884274D040F228
:1038A0008841C4F2020188426ED040F2A041C4F2C5
:1038B000020167E040F22741C4F20201884240DC85
:1038C000A021C4F2020188425ED0B821C4F20201F4
:1038D000884259D040F21041C4F2020152E045F250
:1038E0006B41C5F6020188423CDC45F23041C5F629
:1038F0000201884248D045F24441C5F6020188429F
:1039000042D045F258413BE05821C4F202018842BE
:103910003AD07021C4F20201884235D08821C4F225
:1039200002012FE040F2B841C4F2020188422BD0DC
:1039300045F20841C5F60201884225D045F21C41F6
:103940001EE040F22841C4F2020188421CD040F23D
:103950004041C4F20201884216D040F25841C4F2FC
:1039600002010FE045F26C41C5F6020188420BD01E
:1039700045F29441C5F60201884205D045F28041E6
:10398000C5F6020188421FD12046FDF769FAA068FA
:10399000802801D10020606004F160036068C7B234
:1039A00001380ECB07280F60536009D82046FDF779
:1039B000CFFA04F16C02002307CA03604A6003E0F7
:1039C00000206067C4E91B0000206065012184F8C5
:1039D000351001B0BDE8F0834020C9E600000000CA
:1039E000F0B581B0A8B3044690F83400012802D1A4
:1039F000022001B0F0BD012084F8340094F83500B5
:103A0000012820D1022084F835000020606540F2B2
:103A10000F462068C4F2020640F26F47B042C4F27B
:103A2000020719DC6F25C4F20205A84225DC3F25F8
:103A3000C4F20205A8423BDC1025C4F20205A842EC
:103A40005BD0282553E04FF400606065002084F8C7
:103A50003400012001B0F0BDB8421ADC40F23F450D
:103A6000C4F20205A8422ADC40F21045C4F2020565
:103A7000A84242D040F2284539E09F25C4F2020511
:103A8000A84225DC7025C4F20205A84235D088255D
:103A90002DE040F29F45C4F20205A8421FDC40F22F
:103AA0007045C4F20205A84227D040F288451EE0C6
:103AB0004025C4F20205A8421FD0582517E040F265
:103AC0004045C4F20205A84217D040F258450EE026
:103AD000A025C4F20205A8420FD0B82507E040F2A5
:103AE000B845C4F20205A84207D040F2A045C4F28E
:103AF0000205A84208BF206800E02068056825F09C
:103B0000010505602046FDF7A3FA2068B04210DCED
:103B10006F21C4F2020188421CDC3F21C4F2020181
:103B2000884232DC1021C4F20201884251D028219F
:103B30004AE0B8421ADC40F23F41C4F20201884236
:103B40002ADC40F21041C4F20201884241D040F226
:103B5000284139E09F21C4F20201884225DC70210E
:103B6000C4F20201884234D088212DE040F29F4106
:103B7000C4F2020188421FDC40F27041C4F202012B
:103B8000884226D040F288411EE04021C4F2020162
:103B900088421ED0582117E040F24041C4F2020191
:103BA000884216D040F258410EE0A021C4F2020132
:103BB00088420ED0B82107E040F2B841C4F20201B9
:103BC000884206D040F2A041C4F20201884240F08F
:103BD000298121680B25226C0B6865F344030B6077
:103BE0001AB10A6842F008020A60B84219DC9F2143
:103BF000C4F20201884231DC5721C4F2020188423A
:103C000056DC1021C4F20201884200F09180282184
:103C1000C4F20201884200F08B804021C4F202010C
:103C200084E045F22F41C5F6020188422BDC40F2C8
:103C3000B741C4F20201884248DC40F27041C4F24C
:103C40000201884274D040F28841C4F202018842E5
:103C50006ED040F2A041C4F2020167E040F2274179
:103C6000C4F20201884240DCA021C4F20201884271
:103C70005ED0B821C4F20201884259D040F210410E
:103C8000C4F2020152E045F26B41C5F602018842DE
:103C90003CDC45F23041C5F60201884248D045F28D
:103CA0004441C5F60201884242D045F258413BE00A
:103CB0005821C4F2020188423AD07021C4F20201B4
:103CC000884235D08821C4F202012FE040F2B84189
:103CD000C4F2020188422BD045F20841C5F6020128
:103CE000884225D045F21C411EE040F22841C4F232
:103CF000020188421CD040F24041C4F202018842D5
:103D000016D040F25841C4F202010FE045F26C4176
:103D1000C5F6020188420BD045F29441C5F6020176
:103D2000884205D045F28041C5F60201884272D131
:103D3000216E0A68D20303D50A6842F480720A60D1
:103D4000E16E19B10A6842F480720A60B04210DC78
:103D50006F21C4F2020188421CDC3F21C4F202013F
:103D6000884232DC1021C4F20201884252D028215C
:103D70004AE0B8421ADC40F23F41C4F202018842F4
:103D80002ADC40F21041C4F20201884242D040F2E3
:103D9000284139E09F21C4F20201884225DC7021CC
:103DA000C4F20201884235D088212DE040F29F41C3
:103DB000C4F2020188421FDC40F27041C4F20201E9
:103DC000884227D040F288411EE04021C4F202011F
:103DD00088421FD0582117E040F24041C4F202014E
:103DE000884217D040F258410EE0A021C4F20201EF
:103DF00088420FD0B82107E040F2B841C4F2020176
:103E0000884207D040F2A041C4F20201884208BFB4
:103E1000206800E02068016841F001010160002095
:103E200001B0F0BD21680525226C0B68002A65F3FE
:103E300043030B603FF4D9AE0A6842F00402D3E6B4
:103E400080B5FDF7ADFA80BD80B58821C5F60001CB
:103E50000A68024208BF80BD0860FFF7F1FF80BD1D
:103E60002DE9F04F83B00C68002C00F0C68000F103
:103E7000264242F2004702F1FF72C5F602074FEAFE
:103E8000B22201920A22B84208BF09220025002767
:103E90004FF0010A009209E00C68043734FA0AF284
:103EA0000AF1010A05F1020500F0A780AAF1010953
:103EB000012202FA09FE14EA0E08EDD0D1F804B08E
:103EC0000BF00304A4F1010CBCF1010F11D8032283
:103ED0008668AA40CB6826EA0202AB401A43826099
:103EE000CBF30013426822EA0E0203FA09F31A43E5
:103EF0004260032C1ED00323C268AB40022C22EA8E
:103F000003028B6803FA05F342EA0302C26011D18F
:103F10006FF0030207F01C0602EA59020F23024465
:103F200003FA06F4D2F820C00B692CEA0404B3406B
:103F30002343136203230268AB404E689A4306F0A2
:103F40000303AB4016F4403F42EA03020260A3D0F1
:103F500044F2F44340F2084EC5F60203C5F6000EE3
:103F60001A6842F002021A601A6807F00C0302F0A5
:103F700002020292029A29F00302019C009E092C7F
:103F800038BF26460F2452F80EC09C402CEA040489
:103F900006FA03F34FF0B04C234342F80E30DCF83E
:103FA00000204B6842EA0806DC0258BF22EA0806F5
:103FB0009C02CCF8006040F2040CC5F6000CDCF862
:103FC000002042EA080658BF22EA08069C03CCF803
:103FD0000060DCF8802042EA080658BF22EA0806A2
:103FE000DB03CCF88060DCF87C2042EA080658BF8E
:103FF00022EA0806CCF87C604EE703B0BDE8F08FFB
:10400000002A08BF09048161704700000000000019
:1040100041F20000C5F600400068000C7047000047
:1040200041F23840C2F200400068704700000000D2
:1040300041F2080041F23841C2F20040C2F20041B0
:1040400000780A6810440860704700000000000013
:1040500080B5032000F0D8F801F0FEFA44F21841D0
:1040600049F29C63C5F60201C0F600030A680968BC
:1040700001F00F01C2F30322595C9A5C01F01F01A9
:1040800002F01F02D04041F20402C2F2004220FAC4
:1040900001F1116041F20001C2F2004108600F20FD
:1040A00000F00AF800281CBF012080BD00F080F855
:1040B000002080BD00000000B0B541F20801C2F24E
:1040C0000041097801B3044641F20000C2F2004009
:1040D0004FF47A72B2FBF1F10068B0FBF1F001F03D
:1040E00083FE0F2C4FF001050CD858B94FF0FF306C
:1040F00000222146002500F077F841F20C00C2F2C0
:10410000004004602846B0BD0120B0BD00000000A2
:1041100010B54EF6A05E4178CEF2000E90F800C0C9
:104120004EF8081CDEF8001021F00101CEF8001056
:1041300041684EF8041C017BC37A827A447B1B06DB
:1041400043EA0171837B41EAC241C27B41EA844177
:10415000447A41EA4341007A41EA024141EA0421BA
:1041600041EA400040EA0C00CEF8000010BD00001B
:104170004EF62450CEF20000BFF35F8F016821F4A9
:1041800080310160002101677047000000000000DD
:104190004EF6245140F00100CEF200010867086895
:1041A00040F480300860BFF34F8FBFF36F8F7047CC
:1041B00081B044F2F440C5F60200016841F002010A
:1041C0000160006800F002000090009801B07047A4
:1041D00080B504F009FD80BD80B504F015FD80BDFB
:1041E00080B504F025FD80BD70B514460D46064629
:1041F00004F02EFD2946224603F08AF80146304697
:1042000004F02EFD70BD000080B504F03DFD80BDC2
:10421000B0B544F60C05C5F60205296849072968BA
:1042200005D401F00701081A18BF0120B0BD21F024
:10423000070108432860FFF7F3FE044655F8080C11
:10424000800407D4FFF7ECFE001BB0F57A7FF5D9A8
:104250000120B0BD0020B0BD80B501F0ADF944F241
:10426000204149F29C62C5F60201C0F600020968CD
:10427000C1F30211515C01F01F01C84080BD000074
:1042800080B544F2304EC5F6020E5EF8083C5EF88A
:10429000081CC1F3051C5EF8041CBCF1000FDEF81D
:1042A000042016D0C2F3CC0201F00101514303F007
:1042B0000303022B00EE101AB8EE400A0ED0012BB9
:1042C0000FD01BB95EF8301C89060DD49FED341A4F
:1042D00018E000218160C0E9001180BD9FED2F1A18
:1042E00010E09FED2D1A0DE05EF8301C49F200023F
:1042F000C0F2D032C1F3C10122FA01F101EE101A6D
:10430000B8EE411ADEF800109FED263A6FF35F21F8
:1043100002EE101ADEF80010C1F34621B8EE422A70
:1043200000EE032A00EE10CAB7EE003AB8EE400ADB
:1043300081EE000A32EE031A02EE101AB8EE422A9B
:1043400020EE010A32EE031A80EE011ABCEEC11A09
:1043500080ED001ADEF80010C1F3064101EE101ADC
:10436000B8EE411A31EE031A80EE011ABCEEC11A02
:1043700080ED011ADEF80010C1F3066101EE101A9B
:10438000B8EE411A31EE031A80EE010ABCEEC00A03
:1043900010EE101A816080BD0024744A20BCBE4B10
:1043A0000024744C0000003980B544F2384EC5F644
:1043B000020E5EF8103C5EF8101CC1F3053C5EF87E
:1043C0000C1CBCF1000FDEF8042014D0C1F3001166
:1043D000C2F3CC02514300EE101A03F0030102298C
:1043E000B8EE400A0CD071B95EF8381C89060DD4BD
:1043F0009FED341A18E000218160C0E9001180BDF2
:104400009FED2F1A10E09FED2D1A0DE05EF8381C7D
:1044100049F20002C0F2D032C1F3C10122FA01F127
:1044200001EE101AB8EE411ADEF800109FED263AA0
:104430006FF35F2102EE101ADEF80010C1F346217F
:10444000B8EE422A00EE032A00EE10CAB7EE003A98
:10445000B8EE400A81EE000A32EE031A02EE101A9C
:10446000B8EE422A20EE010A32EE031A80EE011A5B
:10447000BCEEC11A80ED001ADEF80010C1F306414F
:1044800001EE101AB8EE411A31EE031A80EE011A4D
:10449000BCEEC11A80ED011ADEF80010C1F306610E
:1044A00001EE101AB8EE411A31EE031A80EE010A3D
:1044B000BCEEC00A10EE101A816080BD0024744A60
:1044C00020BCBE4B0024744C0000003900000000EA
:1044D00080B544F2404EC5F6020E5EF8183C5EF818
:1044E000181CC1F3055C5EF8141CBCF1000FDEF86B
:1044F000042014D0C1F30021C2F3CC02514300EEDA
:10450000101A03F003010229B8EE400A0CD071B969
:104510005EF8401C89060DD49FED341A18E0002186
:104520008160C0E9001180BD9FED2F1A10E09FED62
:104530002D1A0DE05EF8401C49F20002C0F2D032A4
:10454000C1F3C10122FA01F101EE101AB8EE411ACD
:10455000DEF800109FED263A6FF35F2102EE101A8D
:10456000DEF80010C1F34621B8EE422A00EE032A1D
:1045700000EE10CAB7EE003AB8EE400A81EE000A2B
:1045800032EE031A02EE101AB8EE422A20EE010AA9
:1045900032EE031A80EE011ABCEEC11A80ED001A49
:1045A000DEF80010C1F3064101EE101AB8EE411A10
:1045B00031EE031A80EE011ABCEEC11A80ED011A29
:1045C000DEF80010C1F3066101EE101AB8EE411AD0
:1045D00031EE031A80EE010ABCEEC00A10EE101A8A
:1045E000816080BD0024744A20BCBE4B0024744C02
:1045F000000000390000000080B584B0024641F69A
:10460000FF7300209B1A70EB010329DB40F2FF339C
:104610009B1A70EB01034FDA82F480630B4300F0C6
:10462000AD8082F400630B4300F0BB8082F48052C3
:10463000114340F07A8144F20041C5F60201086D51
:10464000C0F30232042A00F25D8148F20000C0F299
:10465000BB00DFE812F0B900E000E7006A01F000FB
:1046600047F6FF739B1A70EB010343DA82F40043B1
:104670000B4300F0AD8082F480330B4300F0C08028
:1046800082F40022114340F0508144F20040C5F60C
:104690000200816D01F44031B1F5003F00F01A8154
:1046A000B1F5803F00F02281002940F02B810068A5
:1046B000000140F12781B1E082F480730B4335D0D3
:1046C00082F40072114340F0308144F20041C5F69B
:1046D0000201086DC0F38212042A00F2138148F22D
:1046E0000000C0F2BB00DFE812F06F0096009D00F2
:1046F0002001A60082F400530B432CD082F48042A8
:10470000114340F0128144F20040C5F60200816D71
:10471000C1F30271052900F2F580DFE801F003AC76
:10472000B3BAC86AFFF798FD04B080BD44F20041F7
:10473000C5F60201086D00F00702042A00F2E280CB
:1047400048F20000C0F2BB00DFE812F03E00650056
:104750006C00EF00750044F20040C5F60200016DE8
:10476000C1F30241052900F2CD80DFE801F00384A6
:104770008B92A04200F048FF04B080BD44F200419B
:10478000C5F60201886DC0F34252042A00F2BA80D5
:1047900048F20000C0F2BB00DFE802F0163D44C75B
:1047A0004D0044F20041C5F60201886DC0F302627B
:1047B000042A00F2A78048F20000C0F2BB00DFE844
:1047C00002F0032A31B43A00086880017CD499E0F1
:1047D00044F20040C5F60200016D01F04051B1F114
:1047E000005F00F08C80B1F1805F6AD0002940F05A
:1047F0008980006847F640018003C0F27D115CE0CB
:1048000044F20040C5F60200C16C0068C9032CD414
:10481000800177D558E00868000173D501A8FFF73B
:10482000C3FD05E0086880006CD501A8FFF750FEC5
:10483000019804B080BDC86C0B6810F04052086845
:1048400002D113F0040328D1B2F1805F02D110F439
:10485000807060D1086810F400301CBF47F640003B
:10486000C0F27D10B2F1005F6BE000014AD501A8F3
:10487000FFF79AFD40E00068000143D501A8FFF76B
:1048800093FD24E0006880003CD501A8FFF720FEDE
:104890001DE00168490735D50068C0F3C10049F241
:1048A0000001C0F2D03121FA00F004B080BD0068F0
:1048B00040F60011C005C0F23D0101EAE07004B00D
:1048C00080BD006880011DD501A8FFF7D9FC0298C2
:1048D00004B080BDC16C036811F04051026814D16E
:1048E00013F0040311D0C2F3C100D8E700688000C0
:1048F00008D501A8FFF7ECFD039804B080BD00685F
:1049000000010ED4002004B080BDB1F1805F0ED153
:1049100012F480720BD040F60010C0F23D0004B0DB
:1049200080BD01A8FFF740FD029804B080BD00687B
:1049300010F400301CBF47F64000C0F27D10B1F10A
:10494000005F18BF002004B080BD00000000000020
:104950002DE9F04381B00446C07844F22C490007A9
:10496000C5F6020901D400252EE0A06E4FEA3050B2
:1049700003280DD80025DFE800F0020E1714D9F83F
:104980000000002540F40030C9F8000055B913E0DC
:1049900001253DB910E004F10800022102F0D4FC29
:1049A00005464DB1A84611E004F12800022102F0AD
:1049B0005BFD0546002DF5D1D9F82400A16E20F449
:1049C00040100843C9F824004FF000086078C00781
:1049D00030D0A06D042807D8DFE800F00A131C03CC
:1049E0000300FDB1A84625E00125002DFAD119E00C
:1049F000D9F8000040F40030C9F80000002DF1D1D2
:104A000010E004F10800002102F09EFC0546002D94
:104A1000E8D107E004F12800002102F025FD054659
:104A2000002DDFD1D9F82400A16D20F00700084344
:104A3000C9F824006078800732D5E06D4FEAB010E5
:104A4000042807D8DFE800F00A131C030300FDB1B7
:104A5000A84625E00125002DFAD119E0D9F800007B
:104A600040F40030C9F80000002DF1D110E004F14D
:104A70000800002102F068FC0546002DE8D107E09F
:104A800004F12800002102F0EFFC0546002DDFD1E3
:104A9000D9F82400E16D20F4E0700843C9F824003F
:104AA0006078400734D5D4F8A8004FEA7050042845
:104AB00007D8DFE800F00A131C030300FDB1A84685
:104AC00026E00125002DFAD119E0D9F8000040F4C4
:104AD0000030C9F80000002DF1D110E004F1080009
:104AE000002102F031FC0546002DE8D107E004F179
:104AF0002800002102F0B8FC0546002DDFD1D9F8CE
:104B00002C00D4F8A81020F460000843C9F82C0049
:104B10006078000734D5D4F8AC004FEA3060042840
:104B200007D8DFE800F00A131C030300FDB1A84614
:104B300026E00125002DFAD119E0D9F8000040F453
:104B40000030C9F80000002DF1D110E004F1080098
:104B5000002102F0F9FB0546002DE8D107E004F141
:104B60002800002102F080FC0546002DDFD1D9F895
:104B70002C00D4F8AC1020F0E0600843C9F82C00F9
:104B8000E078800728D5E06C4FEA3010032806D87B
:104B9000DFE800F002091202B5B1A8461CE00125C9
:104BA000002DFAD110E0D9F8000040F40030C9F827
:104BB0000000002DF1D107E004F10800022102F00D
:104BC000C3FB0546002DE8D1D9F82000E16C20F0A8
:104BD00030000843C9F820006078C00632D5206E46
:104BE0004FEA3030042807D8DFE800F00A131C032E
:104BF0000300FDB1A84625E00125002DFAD119E0FA
:104C0000D9F8000040F40030C9F80000002DF1D1BF
:104C100010E004F10800002102F096FB0546002D8B
:104C2000E8D107E004F12800002102F01DFC054650
:104C3000002DDFD1D9F82400216E20F4E040084394
:104C4000C9F824006078800626D5606E4FEA3040AF
:104C5000052807D8DFE800F0030A100303039DB11D
:104C6000A84619E00125002DFAD10DE004F1080055
:104C7000012102F069FB04E004F12800012102F0A7
:104C8000F3FB0546002DEBD1D9F82400616E20F42A
:104C9000E0200843C9F824006078400628D5D4F8FD
:104CA000B0004FEA3070052807D8DFE800F0030AAB
:104CB000100303039DB1A8461AE00125002DFAD187
:104CC0000DE004F10800012102F03EFB04E004F1D4
:104CD0002800012102F0C8FB0546002DEBD1D9F8D0
:104CE0002C00D4F8B01020F0E0400843C9F82C00A4
:104CF0006078000620D5206FD8B1B0F1005F12D0E7
:104D0000B0F1805F25D1D9F8000040F40030C9F837
:104D1000000085B9D9F82400216F20F040500843E5
:104D2000C9F8240008E004F10800012102F00CFB9E
:104D30000546002DEED0A846E078C0072AD0A06C2A
:104D400003280AD8DFE800F0020D1602D5B1A84604
:104D500020E00125002DEED1DCE70125002DF6D164
:104D600010E0D9F8000040F40030C9F80000002D30
:104D7000EDD107E004F10800022102F0E5FA054652
:104D8000002DE4D1D9F82000A16C20F003000843E5
:104D9000C9F82000A078400642D5D9F8D40340F4E1
:104DA0008070C9F8D403FFF73BF90646D9F8D4035D
:104DB000C00505D4FFF734F9801B6528F6D3032519
:104DC0006DBBD9F84410D4F8B400414011F4407FD1
:104DD00011D0D9F84410D9F8442042F48032C9F8EF
:104DE0004420D9F8442021F4407122F48032C9F8DB
:104DF0004420C9F84410B0F5807F0FD1FFF710F9B7
:104E0000064641F2893700BFD9F84400800705D42F
:104E1000FFF706F9801BB842F6D3032585B1A846F3
:104E20002078C00742D0E06F4FEAF000052823D871
:104E3000DFE800F003262C0303037DB3A84635E02A
:104E40004FF6CF73D4F8B40059F81C2CC0F2FF030E
:104E500000F4407122F47C5203EA1013B1F5407F54
:104E600008BF1A436FF31F3049F81C2CD9F84410BF
:104E70000843C9F84400D3E70125002DDED10DE039
:104E800004F10800012102F05FFA04E004F12800B7
:104E9000012102F0E9FA0546002DCFD1D9F828000A
:104EA000E16F20F038000843C9F828002078800717
:104EB00024D5A06F052807D8DFE800F0030A100307
:104EC00003039DB1A84619E00125002DFAD10DE09C
:104ED00004F10800012102F037FA04E004F128008F
:104EE000012102F0C1FA0546002DEBD1D9F82800C6
:104EF000A16F20F007000843C9F828002078400778
:104F000026D5D4F89400052807D8DFE800F0030A76
:104F1000100303039DB1A8461AE00125002DFAD124
:104F20000DE004F10800012102F00EFA04E004F1A2
:104F30002800012102F098FA0546002DEBD1D9F89E
:104F40002C00D4F8941020F007000843C9F82C0076
:104F50002078800628D5D4F890004FEA30700528D4
:104F600007D8DFE800F0030A100303039DB1A84649
:104F70001AE00125002DFAD10DE004F1080000210E
:104F800002F0E2F904E004F12800022102F06CFAD8
:104F90000546002DEBD1D9F82800D4F8901020F068
:104FA000E0400843C9F828002078400628D5D4F806
:104FB0009C004FEAB020052807D8DFE800F0030A7C
:104FC000100303039DB1A8461AE00125002DFAD174
:104FD0000DE004F10800002102F0B6F904E004F14C
:104FE0002800022102F040FA0546002DEBD1D9F845
:104FF0002C00D4F89C1020F4E0500843C9F82C0091
:105000002078000628D5D4F8A0004FEA7030052893
:1050100007D8DFE800F0030A100303039DB1A84698
:105020001AE00125002DFAD10DE004F1080000215D
:1050300002F08AF904E004F12800022102F014FAD7
:105040000546002DEBD1D9F82C00D4F8A01020F49F
:1050500060400843C9F82C002078000716D5D4F822
:105060008400B0F5805F08D104F12800022102F02D
:10507000FBF9002818BF4FF00108D9F82800D4F830
:10508000841020F440500843C9F828002078C00656
:1050900016D5D4F89800B0F5807F08D104F1280027
:1050A000022102F0E1F9002818BF4FF00108D9F8F9
:1050B0002C00D4F8981020F440700843C9F82C0054
:1050C000A078000722D5D4F8A400B0F5003F1AD08C
:1050D000B0F5803F11D0C8BB04F10800002102F0F8
:1050E00033F905468DB9D9F82C00D4F8A41020F472
:1050F00040300843C9F82C0008E004F128000221E0
:1051000002F0B2F90546002DEDD0A846A078400780
:1051100029D5D4F88800B0F5401F21D0B0F5001F84
:1051200018D0B0F5801F40F0BF80D9F8000040F4DF
:105130000030C9F80000ADB9D9F82800D4F88810BB
:1051400020F440100843C9F828000CE00125002D88
:10515000DBD1C8E704F12800012102F085F90546FA
:10516000002DE9D0A846A078C00720D0206DB0F56A
:10517000803F10D0B8B9D9F8000040F40030C9F829
:1051800000009DB9D9F82000216D20F4803008433B
:10519000C9F820000BE004F10800022102F0D4F865
:1051A00005461DB9EEE70125002DEBD0A846E078B5
:1051B000800608D504F12800022102F055F90028E4
:1051C00018BF4FF00108D4E900108A037BD5D4F84A
:1051D00080206FF0010303EB3223022B0AD34FEA46
:1051E00032233BB1012B64D1D9F8003043F40033B2
:1051F000C9F80030002D5FD0CA0267D4CA006FD44E
:105200008A0279D44A0000F18280B1F1FF3F40F375
:105210008F80090200F19780C00707D004F10800D1
:10522000002102F091F8002818BF05462079800778
:1052300007D504F10800012102F086F8002818BF04
:1052400005462079400707D504F10800022102F045
:105250007BF8002818BF05462079000707D504F120
:105260002800002102F000F9002818BF0546207927
:10527000C00607D504F12800012102F0F5F8002846
:1052800018BF05462079800607D504F128000221C1
:1052900002F0EAF8002818BF0125002D18BF0125EB
:1052A000284601B0BDE8F0830125002D7FF45AAFF8
:1052B00042E70125002D9FD1D9F8283023F440730F
:1052C0001A43C9F828204546CA0297D5D9F82420A0
:1052D000636F22F000421A43C9F82420CA008FD518
:1052E00059F81C2CD4F8B83022F480421A4349F8FB
:1052F0001C2C8A027FF586AFD9F82420E36E22F0B9
:1053000080721A43C9F824204A007FF57EAF59F80D
:105310001C2C22F4004249F81C2CD4F8BC2059F86B
:105320001C3C1A4349F81C2CB1F1FF3F3FF771AF09
:10533000D9F82020636D22F040521A43C9F820208A
:1053400009027FF569AFD9F82810D4F88C2021F430
:1053500040011143C9F82810C0077FF45FAF65E72B
:105360002DE9F04381B0002800F0F48042F20008FB
:105370000446C5F200288946D8F8000000F00F0066
:1053800088420ED2D8F8000020F00F0040EA090051
:10539000C8F80000D8F8000000F00F00484540F0C1
:1053A000D980206844F218474107C5F602070AD59C
:1053B00021693A6802F07002914204D93A6822F0F9
:1053C00070021143396001070AD561697A6802F0F9
:1053D0007002914204D97A6822F070021143796018
:1053E000C1060AD5A1697A6802F4E062914204D943
:1053F0007A6822F4E0621143796081060AD5E16996
:10540000BA6802F07002914204D9BA6822F07002C0
:105410001143B96081070AD5E1683A6802F00F02CA
:10542000914204D93A6822F00F0211433960C00753
:105430007ED1206881070AD5E1683A6802F00F0240
:10544000914204D23A6822F00F0211433960D8F831
:10545000001001F00F0149450DD9D8F8001021F0D6
:105460000F0141EA0901C8F80010D8F8001001F056
:105470000F0149456ED141070AD521693A6802F00A
:105480007002914204D23A6822F0700211433960EE
:1054900001070AD561697A6802F07002914204D26C
:1054A0007A6822F0700211437960C1060AD5A169B9
:1054B0007A6802F4E062914204D27A6822F4E062EF
:1054C0001143796080060AD5E069B96801F070017E
:1054D000884204D2B96821F070010843B86000F036
:1054E000BBF8396849F29C62C0F600023B68C1F320
:1054F000032103F00F03515CD25C01F01F01C8408F
:1055000002F01F0141F2040220FA01F1C2F200424E
:10551000116041F2000141F20C02C2F20041C2F2FC
:10552000004208601068FEF7C7FD01B0BDE8F083D7
:10553000386820F47061D4E90102012841EA0201CF
:1055400039600BD003282BD002282ED157F8181C15
:10555000890307D4012001B0BDE8F08357F8181C77
:10556000C905F7D557F8081C21F00701084347F88B
:10557000080CFEF755FD064641F2883557F8080C31
:10558000616800F03800B0EBC10F3FF452AFFEF796
:1055900047FD801BA842F1D9032001B0BDE8F0838C
:1055A00057F8181C8901D5D5DCE757F8181C4907AE
:1055B000D0D5D7E70000000080B500F04DF844F2E8
:1055C000184149F29C63C5F60201C0F600030A685F
:1055D000096801F00F01C2F30322595C9A5C02F0E2
:1055E0001F0220FA02F201F01F0041F2040122FA28
:1055F00000F0C2F20041086041F20001C2F2004135
:105600000A6080BD0000000080B5FFF7D5FF44F2BE
:105610001C4149F29C62C5F60201C0F6000209680D
:10562000C1F30211515C01F01F01C84080BD0000B0
:1056300080B5FFF7C1FF44F21C4149F29C62C5F6F8
:105640000201C0F600020968C1F30221515C01F0B9
:105650001F01C84080BD000044F20041C5F60201B0
:105660000869C0F3C20003280FD002282AD070BBFB
:105670000868800649F20000C0F2D03058BF704779
:105680000968C1F3C101C84070478A6A886AC0F3DB
:10569000051CC86ABCF1000F4B6B1DD0C3F3CC03D3
:1056A00000F00100584302F00302022A00EE100A43
:1056B000B8EE400A12D0A2B90868800614D49FED53
:1056C000261A1EE047F64000C0F27D10704740F6F3
:1056D0000010C0F23D007047002070479FED1D1A7A
:1056E0000FE09FED1B1A0CE0086849F20002C0F2BF
:1056F000D032C0F3C10022FA00F001EE100AB8EE79
:10570000411A086B9FED153A6FF35F2002EE100A05
:10571000086BC0F34620B8EE422A013000EE032A9F
:1057200000EE10CAB7EE003AB8EE400A81EE000A69
:1057300032EE031A20EE010A01EE100AB8EE411A09
:1057400080EE010ABCEEC00A10EE100A704700BFDE
:105750000024744A20BCBE4B0024744C0000003965
:105760002DE9F04381B0F8B18046007844F2004959
:10577000C007C5F602095AD0D9F8100000F0380168
:10578000D9F82800102905D018290FD100F00300FE
:1057900002280BD1D9F80000800344D5D8F80400C2
:1057A000002840D101272FE0012718E3D8F8044052
:1057B0002CB1B4F5A02F0DD0B4F5803F10D0D9F89E
:1057C000000020F48030C9F80000D9F8000020F46F
:1057D000802009E0D9F8000040F48020C9F80000DA
:1057E000D9F8000040F48030C9F80000FEF718FC3A
:1057F0000546A4B1D9F80000800314D4FEF710FCCC
:10580000401B6428F6D903270020002800F0E78217
:105810000DE000BFFEF704FC401B6428F3D8D9F864
:1058200000008003F6D40120002800F0D88298F808
:105830000000800740F18480D9F8100010F0380192
:10584000D9F828001CD0182908BF5FEA807017D04B
:10585000D8F80C00D9F80010002847D021F0190121
:105860000843C9F80000FEF7DBFB0546D9F8000045
:1058700040072AD4FEF7D4FB401B0228F6D91EE0CD
:10588000D9F80000400704D5D8F80C00002800F033
:105890009681D9F80000D8F80C1020F019000843C0
:1058A000C9F80000FEF7BCFB054600BFD9F80000B0
:1058B00040070AD4FEF7B4FB401B0228F6D90327A1
:1058C0000024002C00F08B823AE0FEF7A1FB41F2AD
:1058D0000301884223D8D8F81000D9F804104028D2
:1058E00021F47C3124D141F4003023E021F0010087
:1058F000C9F80000FEF794FB05460126D9F8000020
:1059000010F0040086EA900417D0FEF789FB401BD4
:105910000328F3D30327002C00F0618210E0D9F8AC
:105920000400D8F8101020F0FE4040EA016001E0C9
:1059300041EA0030C9F804000124002C00F04F8235
:1059400098F80000C00674D5D9F8100000F03801AE
:10595000D9F82800082905D018291CD100F0030027
:10596000012818D1D9F80000C00503D5D8F81C00CB
:10597000802859D1FEF74CFB41F20301884222D81E
:10598000D8F82000D9F80410202821F0F84142D19D
:1059900041F0804041E0D8F81C000028D9F8000010
:1059A00020D040F08000C9F80000FEF739FB054622
:1059B000D9F80000C005DDD4FEF732FB401B0228F9
:1059C000F6D9032731E0D9F80C00D8F8201020F0E0
:1059D0007C50012440EA0160C9F80C00002C00F062
:1059E000FE8126E020F08000C9F80000FEF718FBD9
:1059F00005460126D9F8000010F4807086EA1024CC
:105A00000ED0FEF70DFB401B0328F3D30327002C19
:105A100000F0E5810DE041EA8060C9F8040001244E
:105A2000002C00F0DC8104E001270024002C00F0B1
:105A3000D68198F8000000071CD498F80000800672
:105A400031D498F80000400745D4D8F82440002C01
:105A500000F09180D9F8100000F03800182840F0CC
:105A60008C80012CD9F82810D9F8300040F0A9809A
:105A70000127B4E1D8F814000028D9F874003ED00A
:105A800040F00100C9F87400FEF7CAFA054600BFED
:105A9000D9F874008007D0D4FEF7C2FA401B022860
:105AA000F6D903279BE1D8F818000028D9F80000A0
:105AB0004DD040F48050C9F80000FEF7B1FA054619
:105AC000D9F800008004BCD4FEF7AAFA401B0228D3
:105AD000F6D9032783E1D9F8000440F48070C9F8AF
