:020000040800F2
:10000000D0180020AD02000829780008C970000847
:1000100021780008810D0008099200080000000006
:10002000000000000000000000000000B17A00089D
:10003000B11300080000000069780008417B000847
:10004000CB020008CB020008CB020008CB0200085C
:10005000CB020008CB020008CB020008CB0200084C
:10006000CB020008CB020008CB020008890D000873
:10007000CB020008CB020008CB020008CB0200082C
:10008000CB020008CB020008CB020008CB0200081C
:10009000CB020008CB020008CB020008CB0200080C
:1000A000CB020008CB020008CB020008CB020008FC
:1000B000CB020008CB020008CB020008CB020008EC
:1000C000CB020008CB020008CB020008CB020008DC
:1000D000CB020008CB020008CB020008F99100080F
:1000E000CB020008CB02000800000000CB02000891
:1000F000CB020008CB020008CB020008CB020008AC
:10010000CB020008CB020008CB020008CB0200089B
:10011000CB020008CB020008CB020008CB0200088B
:10012000CB020008CB020008CB020008CB0200087B
:10013000CB020008CB020008CB020008CB0200086B
:1001400000000000000000000000000000000000AF
:10015000CB020008CB020008CB020008CB0200084B
:10016000CB020008CB020008CB020008CB0200083B
:10017000CB020008CB020008CB0200080000000000
:10018000CB020008CB020008CB020008CB0200081B
:10019000CB020008CB020008CB020008CB0200080B
:1001A000CB020008CB020008CB020008CB020008FB
:1001B000CB020008CB020008CB020008CB020008EB
:1001C000CB020008CB020008CB020008CB020008DB
:1001D000CB020008CB020008CB020008CB020008CB
:1001E000CB020008CB020008CB020008CB020008BB
:1001F000CB020008CB020008CB020008CB020008AB
:10020000CB020008CB020008CB020008CB0200089A
:10021000CB020008CB020008CB020008CB0200088A
:10022000CB020008CB020008CB020008000000004F
:10023000CB020008CB02000800000000CB0200083F
:10024000CB020008CB020008CB020008CB0200085A
:10025000CB020008CB020008CB020008CB0200084A
:10026000CB020008CB020008CB020008CB0200083A
:10027000CB020008CB020008CB02000800000000FF
:10028000CB020008CB020008CB02000800000000EF
:1002900000000000CB020008DFF80CD000F092FA5A
:1002A00000480047E9920008D0180020074880471E
:1002B0000748804707480047FEE7FEE7FEE7FEE7FE
:1002C000FEE7FEE7FEE7FEE7FEE7FEE7E1130008D4
:1002D000097C0008990200082DE9F05F054600201E
:1002E00092469B4688460646814640241BE02846A7
:1002F00041464746224600F065F853465A46C01A22
:10030000914110D311461846224600F04CF82D1AA0
:1003100067EB01084F4622460120002100F043F818
:1003200017EB00094E41201EA4F10104DFDC484612
:1003300031462A464346BDE8F09FD2B201E000F8BC
:10034000012B491EFBD270470022F6E710B5134679
:100350000A4604461946FFF7F0FF204610BD30B4A8
:10036000044696230800214604D0B62330BC002260
:1003700000F041B820460021F8E730B50B460146B1
:1003800000202022012409E021FA02F59D4205D334
:1003900003FA02F5491B04FA02F52844151EA2F1DE
:1003A0000102F1DC30BD202A04DB203A00FA02F120
:1003B000002070479140C2F1200320FA03F3194353
:1003C00090407047202A04DB203A21FA02F00021F5
:1003D000704721FA02F3D040C2F120029140084355
:1003E000194670470029A8BF7047401C490008BF44
:1003F00020F00100704710B4B0FA80FC00FA0CF055
:1004000050EA010404BF10BC704749B1CCF120048C
:1004100021FA04F411FA0CF118BF01212143084319
:10042000A3EB0C01CB1D4FEA00614FEA102042BF45
:10043000002010BC704700EBC35010440029A4BF3B
:1004400010BC7047401C490008BF20F0010010BCE0
:1004500070472DE9FE4F804681EA0300C00F0C462D
:10046000009021F0004123F00045B8EB0200A941C3
:1004700005D24046214690461C460B46024623F0D4
:100480000040104347D0270DC7F30A00C3F30A51B9
:100490000290401A019040286BDAC3F3130040F435
:1004A000801B0098924620B10023D2EB030A63EB35
:1004B0000B0B01985946C0F140025046FFF773FFFD
:1004C00006460D4650465946019A00F08DF910EB4C
:1004D00008006141002487EA115284EAE7731A4355
:1004E00040D0009A62B3019A012A4FEA075215DC04
:1004F000001B61EB02014FF0004202EA0752CDE916
:100500000042001C41F5801132462B4600F08DF967
:1005100003B0BDE8F08F40462146F9E7001B61EBD0
:100520000201001C41F5801300185B412018A2F560
:10053000001747EB030140EAD570B6196D4111E091
:100540006D084FEA360645EAC0754FEA0752001BB0
:1005500061EB0201001C41F5801149084FEA3000AF
:100560000019514132462B4603B0BDE8F04F00F070
:100570004DB90098012240000023D0EB020263EB4A
:10058000E073009821464FEAE074B8EB000061EB9D
:100590000401E9E783F000435BE781F0004158E79D
:1005A0002DE9FE4F81EA030404F0004421F00041EC
:1005B00000944FF0000B23F0004350EA01045ED09A
:1005C00052EA03045BD0C3F30A54C1F30A552C4426
:1005D000A4F2F3340194A0FB0254C1F3130141F4DB
:1005E0008011C3F3130343F4801301FB024400FBA7
:1005F000034E840A970A44EA815447EA8357A4FBCE
:10060000076802958D0A05FB07854FEA932C04FBCA
:100610000C542705029D4FEA065847EA1637B5EBFA
:1006200008056EEB070C870E920E47EA811742EA27
:100630008312A7FB0201B6EB0B0164EB00042B0D48
:1006400043EA0C335E1844EB1C50DA465146E7FB94
:100650000201C5F313044FEA0B3343EA14534FEA84
:100660000432019C43EA0603A4F10C040294009CAA
:10067000CDE900B400F0D9F803B0BDE8F08F002058
:100680000146F9E72DE9F04D81EA030404F0004B3F
:1006900021F0004514464FF0000A23F0004150EAD3
:1006A000050220D054EA01021DD0C5F30A570246C4
:1006B000C5F31303C1F31300C1F30A5640F48015C8
:1006C00043F48013A7EB0608101BD64608F2FD384A
:1006D00073EB050002D308F1010801E092185B41B9
:1006E000B8F1000F03DA00200146BDE8F08D0020CC
:1006F0004FF48011064684460EE0171B73EB050786
:1007000005D3121B63EB050306434CEA010C4908B1
:100710004FEA300092185B4150EA0107EDD152EAEE
:10072000030012D082EA040083EA0501084305D0E1
:10073000101BAB4106D20122002306E000224FF03D
:10074000004302E06FF0010253101AEB06004CEB7D
:10075000085110EB0A0041EB0B01BDE8F04D00F031
:1007600055B8C1F30A52C1F3130140F2FF3341F40B
:1007700080119A4202DA00200146704740F233436A
:100780009A42A2F2334202DC5242FFF71BBEFFF74D
:100790000ABE000030B5041E71F1000404DB4FF006
:1007A0000044404264EB0101141E73F1000405DBB8
:1007B0001C464FF00043524263EB0403994208BFCA
:1007C000904230BD064C074D06E0E06840F0010362
:1007D00094E8070098471034AC42F6D3FFF760FD69
:1007E000109D0008309D0008202A06DBCB17203A18
:1007F00041FA02F043EAE07306E041FA02F3D04026
:10080000C2F12002914008431946704710B5141EEA
:1008100073F1000408DA401C41F1000192185B41B9
:100820001A4301D120F0010010BD2DE9F04D924690
:100830009B4611B1B1FA81F202E0B0FA80F22032A7
:100840009046FFF7B0FD04460F4640EA0A0041EA31
:100850000B0153465A46084313D0114653EA010090
:1008600019D0C8F140025046FFF7ACFD05460E46D0
:10087000504659464246FFF796FD084305D00120F1
:1008800004E020463946BDE8F08D0020054346EAE5
:10089000E0762C4337430A986305E40AA0EB08008E
:1008A0000022FD0A44EA47540A3002D500200146DE
:1008B000E9E7010510196941DDE9084500196941B9
:1008C000BDE8F04DA2E730B58C1810F8012B12F0FE
:1008D0000F0301D110F8013B120906D110F8012BCA
:1008E00003E010F8015B01F8015B5B1EF9D101E048
:1008F00001F8013B521EFBD1A142E6D3002030BDDE
:10090000B0B50446206840F4807042F20011C4F291
:100910000201884204D142F20830C4F2020003E02E
:1009200046F20830C5F60200006810F4403F10D0CF
:1009300005F05AF805466068B0F5803F05D0B0F57F
:10094000403F23D0B0F5003F21D1E088B5FBF0F562
:100950001DE04FF40020002103F0F6FF054660681B
:10096000A0F580204FEAB0400A2810D8DFE800F058
:10097000060606060606484A4C4E5000606847F6D2
:10098000FE7101EA5040B5FBF0F500E0AD0803F060
:100990005FFC216841F2030290420CD8886820F481
:1009A000807242F60053C0F231139D4288BF40F47A
:1009B00080728A60B0BD4BF62140C0F2BE00854215
:1009C00003D8886820F4407017E047F64100C0F271
:1009D0007D10854204D88868012161F309200CE06C
:1009E00089680222084662F309204FF28202C0F2AF
:1009F000FA22954228BF41F4407021688860B0BD5A
:100A00002D09C4E76D09C2E7AD09C0E7ED09BEE7EE
:100A10002D0ABCE70000000070B50D4604462068B2
:100A200006F0AEFB0646206806F086FB304349D050
:100A30002068C06810F0007F05D0607D012804BFE9
:100A4000207D012804D0022D19D10225082624E09A
:100A50002268106810F0400F0ED14FF0FF304DF6B5
:100A60000041C0F20C0100BF013088423BD2226835
:100A7000136813F0400FF7D0402010600125206864
:100A800006F07EFB30B1206806F06AFB10B92068E2
:100A900006F0AEFB0426012D0DD0206806F04CFBBD
:100AA00030B1206806F05CFB10B9206806F048FB06
:100AB000032D08BF0C2603F0D3FB05462068806891
:100AC000304207D1002070BD20688068304204BFEA
:100AD000002070BD03F0C4FB401B0528F4D920683A
:100AE00080683042F0D0606D40F010006065A06D0D
:100AF00040F00100A065012070BD00000000000072
:100B000010B5846B626D616D12F0500F06D0C9068E
:100B10001DD4E16CC96CBDE81040084741F4007079
:100B200060652068016811F0080F15D1C06810F0E9
:100B3000030F25D1606D20F480706065606D10F446
:100B4000805F02BF606D40F00100606518E02046E4
:100B5000BDE8104001F044B806F01AFB80B12068EF
:100B6000C06810F4005F0BD1606D20F48070606588
:100B7000606D10F4805F02BF606D40F00100606541
:100B80002046BDE8104001F007B80000000000005A
:100B9000806B416D41F040014165816D41F0040180
:100BA000816501F01DB80000806B01F015B80000F0
:100BB000B0B50446206806F0D3FA0546206806F072
:100BC000D3FA014600209DBB002908BFB0BD2068B4
:100BD000816801F00D0101292BD106F079FA206816
:100BE0000321016003F03CFB05462068806810F09B
:100BF000010F04BF0020B0BD07E000BF206880687F
:100C000010F0010F04BF0020B0BD03F029FB401B12
:100C10000228F3D92068806810F0010FEED0606DD3
:100C200040F010006065A06D40F00100A06501205B
:100C3000B0BD606D40F010006065A06D40F0010037
:100C4000A0650120B0BD000070B50446206806F024
:100C50008BFA00281CBF002070BD2068816840F21C
:100C60003F02C8F20002114209D0606D40F010004E
:100C70006065A06D40F00100A065012070BD06F028
:100C80003BFA03F0EDFA0546216842F20002C4F295
:100C9000020202F5807602F5407346F20030C5F696
:100CA0000200B14208BF1846914208BF184606F03C
:100CB0003FFA2168B1420A4604BF42F20002C4F280
:100CC0000202002818BF8A4204D12168086810F087
:100CD000010F08D0002070BD21680A68002012F0C2
:100CE000010F18BF70BD084606F03EFA10B9206823
:100CF00006F002FA03F0B4FA401B0328ECD3206894
:100D0000006810F0010FE7D1606D40F010006065E1
:100D1000A06D40F00100A065012070BD0000000042
:100D200041F22820C2F200000178002908BF704774
:100D30004FF0000101704FF0800240F20000C2F25B
:100D40000000014662F35F11BFF34F8F4EF65C72F5
:100D5000CEF200021060203920300029FADC80B584
:100D6000BFF34F8FBFF36F8F06F0BEFE41F2280036
:100D7000C2F2000000F050FBBDE8804006F09CBECF
:100D8000FEE700000000000041F29020C2F20000E7
:100D900001F086BE000000000168B722C4F2020222
:100DA000914213DD40F25742C4F2020291421EDC2E
:100DB00040F22742C4F20202914233DCB822C4F26C
:100DC000020291424AD040F2104243E05722C4F25C
:100DD000020291421ADD8722C4F2020291422ADC09
:100DE0005822C4F20202914238D0702232E040F21E
:100DF0008742C4F20202914224DC40F25842C4F21B
:100E0000020291422AD040F2704223E01022C4F242
:100E1000020291421EBF2822C4F2020291421DD05A
:100E2000402217E040F22842C4F20202914215D05B
:100E300040F240420EE08822C4F2020291420DD0FC
:100E4000A02207E040F2A042C4F20202914205D083
:100E500040F28842C4F2020291421BD1D0F800C095
:100E60006FF00F0151FA8CF34AF6AB21CAF6AA21B2
:100E7000A3FB0112C2F302110CA2515CC16540F246
:100E8000FF312CEA01015F2B88BF41F0040181652D
:100E900008467047D0F800C040F2B843C4F20203DD
:100EA0009942DDD02CF0FF01F1E700BF00061016DB
:100EB000000610160000000010B5026845F29441CB
:100EC000C5F6020145F24343C5F602039A420EDD20
:100ED00045F26B43C5F602039A4217DC45F24443E0
:100EE000C5F602039A421DD045F2584316E045F27A
:100EF0000843C5F602039A421EBF45F21C43C5F6DD
:100F000002039A420ED045F2304307E045F2804397
:100F1000C5F602039A4205D045F26C43C5F60203BA
:100F20009A4217D10378A3F108024CF6CD43CCF6D0
:100F3000CC43A2FB03231B0901F57B7201F55B7116
:100F400001EB830103F01F03012404FA03F3603073
:100F50000EC010BD03788A42E5D0A3F110014AF615
:100F6000AB23CAF6AA23A1FB031C4FF0080E4FEADD
:100F70001C1140F20F44C4F20204A2420B4688BF87
:100F80000EEB1C13AA34A24228BF0B4640F6000108
:100F9000C4F2020101F18002D2E70000000000006B
:100FA00001790139072988BF704710B502684FF0F1
:100FB000010E45F6001CC5F6020C40F60013C4F203
:100FC000020345F24344C5F60204A2420EDD45F297
:100FD0006B44C5F60204A24217DC45F24444C5F650
:100FE0000204A24226D045F2584416E045F20844D5
:100FF000C5F60204A2421EBF45F21C44C5F6020417
:10100000A24217D045F2304407E045F26C44C5F6E1
:101010000204A2420ED045F28044C5F60204A24268
:1010200008D04AF66C34CAF2FD742244B2FA82F255
:101030004FEA521EBEF1000F03F1400218BF634693
:1010400003EB8103BEF1000F18BF0CF14002012435
:1010500004FA01F1C0E91B324167BDE81040704756
:101060008269816AB2F5005F06D06AB9022912D09E
:10107000012915D0D9B90EE0032918D8DFE801F00D
:10108000020B02100120704703293CBF012070476A
:101090001CBF0020704790F82F0000F0010070473F
:1010A000C06AA0F1C070B0FA80F04009704700201B
:1010B0007047000000000000B0B50468D0F858C0C8
:1010C00040F26F4EC4F2020E744516DC9F25C4F246
:1010D0000205AC422CDC5725C4F20205AC424FDCC1
:1010E0001025C4F20205AC421EBF2825C4F2020539
:1010F000AC4200F0858040256BE045F22F45C5F6F7
:101100000205AC4227DC40F2B745C4F20205AC420E
:1011100042DC40F27045C4F20205AC421EBF40F210
:101120008845C4F20205AC426AD040F2A04550E0C6
:1011300040F22745C4F20205AC423CDCA025C4F2D3
:101140000205AC421EBFB825C4F20205AC4257D01E
:1011500040F210453DE045F26B45C5F60205AC4254
:101160003CDC45F23045C5F60205AC421EBF45F2F7
:101170004445C5F60205AC4242D045F258453BE035
:101180005825C4F20205AC421EBF7025C4F2020508
:10119000AC4235D088251CE040F2B845C4F20205C7
:1011A000AC421EBF45F20845C5F60205AC4227D049
:1011B00045F21C4520E040F22845C4F20205AC424D
:1011C0001EBF40F24045C4F20205AC4218D040F2C6
:1011D0005845C4F20205AC4212D01AE045F26C4503
:1011E000C5F60205AC421EBF45F29445C5F60205A0
:1011F000AC4205D045F28045C5F60205AC4208D1A7
:10120000D0E919456560C46E002C1CBFD0E91C45AF
:1012100065600468744515DC9F25C4F20205AC4284
:101220002BDC5725C4F20205AC424EDC1025C4F27B
:101230000205AC421EBF2825C4F20205AC4271D0A3
:1012400040256BE045F22F45C5F60205AC4227DC90
:1012500040F2B745C4F20205AC4242DC40F27045B0
:10126000C4F20205AC421EBF40F28845C4F202053A
:10127000AC4257D040F2A04550E040F22745C4F2BE
:101280000205AC423CDCA025C4F20205AC421EBF04
:10129000B825C4F20205AC4244D040F210453DE00E
:1012A00045F26B45C5F60205AC4256DC45F23045C9
:1012B000C5F60205AC421EBF45F24445C5F602051F
:1012C000AC425DD045F2584555E05825C4F20205C0
:1012D000AC421EBF7025C4F20205AC4222D0882564
:1012E0001CE040F2B845C4F20205AC421AD045F207
:1012F0000845C5F60205AC4242D045F21C453AE02D
:1013000040F22845C4F20205AC421EBF40F24045FF
:10131000C4F20205AC4205D040F25845C4F20205C1
:10132000AC4242D1C56D05F01F053F2404FA05F516
:10133000CCF8085005682C6824F480242C600568DB
:101340006B6003688568402D0D4608BF15469D609B
:1013500008BF0A460068C260B0BD45F26C45C5F6DC
:101360000205AC421EBF45F28045C5F60205AC42FF
:1013700006D045F29445C5F60205AC4218BFB0BD93
:10138000C56D05F01F05012404FA05F5CCF80450DD
:1013900005686B6003688568402D0D4608BF1546DB
:1013A0009D6008BF0A460068C260B0BD0000000032
:1013B0007047000000000000B0B5EFF3108072B677
:1013C00003A405A52046294605F072FEFAE700BFF2
:1013D00074332E74787400004552524F520000004E
:1013E00044F60C00C5F60200016841F002010160FC
:1013F00050F8081C11F4005FFAD07047000000009C
:1014000041F21000C2F2000000210170002000F043
:101410006FB80000000000002DE9F041044641F2E1
:101420001007C2F20007387868B341F22406C2F20E
:1014300000063078002845D002F012FF41F220016A
:10144000C2F200010968401AB0F57A7F4AD341F22E
:101450001800C2F20000D0E9005828464146FEF7C5
:101460007EFF20600020307042F22731491B70EB74
:10147000080138BFBDE8F08138704FF00000BDE8CA
:10148000F04100F035B800F0C3F8B5EEC00AF1EE57
:1014900010FAC8BF84ED000A9FED130A94ED001AFC
:1014A000B4EEC01AF1EE10FA1CDD012038700120F4
:1014B00000F01EF841F22400C2F200000021017089
:1014C000BDE8F08141F21800C2F200000021C0E93D
:1014D000001102F0C5FE41F22001C2F200010860D5
:1014E00001203070BDE8F08100E02B4600000000D4
:1014F0002DE9F04387B000270697CDE90477CDE9C1
:10150000027744F29046C5F60206316D41F00101C2
:101510003165316D01F00101019101998824C5F611
:10152000000440F20008C5F6020820B341F2543529
:10153000C2F200052846002105F04EF9284604F0C5
:101540006FFF202502954FF488100390022004902D
:1015500002A9404602F094FD2560172002F058FFD2
:1015600017200121002202F05FFF172002F058FF30
:1015700007B0BDE8F083172002F04EFF172002F0FD
:1015800047FF4FF02009C4F800904FF0FF30206073
:1015900041F25435C2F20005284604F041FF2846C6
:1015A000002105F019F9306840F001003060019722
:1015B000019880087C2806D8019801300190019894
:1015C000B0F5FA7FF8D3306820F00100306005F004
:1015D000EFFFCDF808900220039000200490032034
:1015E00005900120069002A9404602F049FD2846D8
:1015F00004F0BAFE2846002105F04AF828686FF08A
:101600000201016107B0BDE8F083000000000000A6
:1016100080B541F25430C2F20000002105F02CF9EF
:10162000013002283CBF9FED060A80BD9FED050AF0
:1016300001EE100AB8EE411A80EE010A80BD00BF2B
:101640000000000020BC3E4C2DE9F04182B00D4668
:10165000044694F85000012801D102201FE0012027
:1016600084F85000002001900090206842F20007AA
:10167000C4F20207B8420AD107F58078404605F067
:1016800083FD0646206805F07FFD30430BD0606D7A
:1016900040F0200060650120002184F85010C0B2A5
:1016A00002B0BDE8F081216807F5407246F2000003
:1016B000C5F602004145164618BF00F54076B9420E
:1016C00008BF16462A68B16821F44041B2B16A6881
:1016D0001143B160216841F4807142F20012C4F2FA
:1016E000020291421FD1384605F042FD07464046AE
:1016F00005F03EFD3843D0B10020CDE7B160216850
:1017000041F4807142F20012C4F20202914217D1F8
:10171000384605F02DFD0546404605F029FD2843D5
:1017200090B10020B8E705F023FD0028E4D1B068AF
:1017300040F61F7188432968AA680843104307E0F0
:1017400005F016FD0028ECD1B06840F61F71884303
:10175000B0600020A0E700002DE9F04F81B00D46F9
:1017600004460020009094F85000012801D1022086
:1017700025E1012084F85000206805F001FD28B122
:10178000606D40F020006065012015E128680028A8
:1017900013DB90FAA0F1B1FA81F14FF6FF72C0F2BB
:1017A0000F02104208BF810E01F01F00012101FA53
:1017B00000F02168CA691043C861D5E9002120689A
:1017C00005F0F6FC206805F0DBFC0646206805F015
:1017D000B3FC304370D12968AA68206805F028FD61
:1017E00041F20000C5F6004003686A692068C168DC
:1017F00003F07043B3F1805F02D101F01C0306E0F7
:10180000C9064FF0100158BF1C21C3680B4029695D
:10181000042930D1006E296800F0F840B0EB816FE8
:1018200001BF2068016E21F0004101662068416E11
:101830002A6801F0F841B1EB826F02BF416E21F0DE
:10184000004141662068816E2A6801F0F841B1EBE1
:10185000826F02BF816E21F0004181662068C16EF7
:101860002A6801F0F841B1EB826F02BFC16E21F02E
:101870000041C16620E04FF6FE77C7F6FF7707EA22
:10188000530302FA03F32A6805F01AFD687E002666
:1018900001284FF0000208BF4FF00042296920687C
:1018A00005F01AFD287E012808BF4FF4006629695B
:1018B0002068324605F0F8FC206805F055FC002849
:1018C00079D12968EA68206805F0C2FCE86800263A
:1018D000C4F2527606F52D01884268D12068402175
:1018E000C1F6201140F2800AC1F6505A40F20013AE
:1018F000C2F2801340F20029C2F2B05940F6000B48
:10190000C2F6306B41F20008C3F2602842F20002D6
:10191000C3F2906240F2000CC4F6843C40F2000E28
:10192000C4F6B87E42F20017C4F20207B84227D0CC
:1019300042F20007C4F20207B84235D1E6462F68EA
:1019400040F21F0CC1F2F04C674540F3AA8040F210
:10195000FF71C2F630618F42F44640F3D6805F4596
:10196000414640F2000EC4F6B87E1ED047451146EF
:101970001BD00021C4F221318F42314615D0EAE05C
:101980002F681F26C1F2F046B7427DDC0722C0F661
:101990009042974200F3AA800222C0F2304297425E
:1019A00040F08E80012100E0002105F02DFC286828
:1019B000B0F1FF3F07DD0020002184F85010C0B2D5
:1019C00001B0BDE8F08F216842F20006C4F20206C1
:1019D00006F5807706F5407246F20008C5F6020863
:1019E00008F5407AB942504608BF1046B14208BFD8
:1019F000104605F099FB8146206840F4807042F261
:101A00000011C4F2020188420BD1304605F0ACFB54
:101A10000646384605F0A8FB304300287FF4B0AEF8
:101A200005E0404605F0A0FB00287FF4A9AE296838
:101A30005FEA09204BD40020CCF68430814246D1A5
:101A400020684045B7D149F40001504605F024FC18
:101A500041F20000C2F200000068800942F66351C2
:101A6000C0F23E51A0FB01018809022101EB4000B8
:101A70000090009800289ED0009801380090002027
:101A800000990029F8D197E740F2FF71C2F6306162
:101A90008F4232DC2021C1F2F0418F4249463FD1D2
:101AA00083E70722C0F690429742F44641DC0222C7
:101AB000C0F23042974240F2000EC4F6B87E66D0C3
:101AC0000422C0F6600297423FF46FAF43E05FEA42
:101AD000C91046D40020CCF25270814241D1206816
:101AE00040457FF468AF49F080714CE00821C0F6B2
:101AF00090418F42514627D157E75F4541463FF419
:101B000054AF474527D111464FE72021C1F2F0419C
:101B10008F42494640F2000EC4F6B87E3FF445AF0E
:101B200040F20041C2F600218F4259463FF43DAFDA
:101B300011E00821C0F690418F42514640F2000E5C
:101B4000C4F6B87E3FF431AF1021C1F2C0018F421C
:101B500019463FF42AAF674518BF4FF0000E714693
:101B600023E75FEA49204FF000003FF525AF002250
:101B7000CCF6B87291427FF41FAF206840457FF4E5
:101B80001AAF49F48001504605F086FB13E70121A6
:101B90000BE7000000000000006842F20001C4F200
:101BA0000201884208D041F22500C2F2000000780C
:101BB000012818BF704705E041F22500C2F200007D
:101BC0000121017041F22820C2F2000001210170C0
:101BD0007047000000000000704700000000000097
:101BE00070470000000000002DE9F04182B004467B
:101BF00000200190A4B3606D30B9204600F008F9D0
:101C00000020A06584F85000206805F0A5FA00289F
:101C10001CBF206805F068FA206805F0ADFAC8B965
:101C2000206805F075FA41F20000C2F20000006879
:101C3000800942F66351C0F23E51A0FB0101012030
:101C400000EB911002E000BF01980138019001986B
:101C50000028F9D1206805F08FFA18B100250AE0B4
:101C60000125C9E0606D40F010006065A06D40F096
:101C70000100A0650125206805F082FA616D01F080
:101C800010010843606D03D040F010000125B2E060
:101C900020F4817040F002006065206805F064FA6D
:101CA00058BB206840F4807042F20006C4F202067D
:101CB00046F20008C5F6020842F20011C4F2020121
:101CC000884240F09D80304605F04EFA074606F502
:101CD000807005F049FA384378B9D4E9002106F557
:101CE000807006F540738242184618BF08F54070B0
:101CF000B24208BF184605F0C7FA02F0A9FAA16877
:101D0000226B0A43637D42EA4332237F42EA034265
:101D10001029114608BF41F00C0141F20307B842F7
:101D200098BF1146012B06D1206A0022CFF6FE7221
:101D300002EB40400143606A00281FBF00F4787046
:101D40000843A16A01432068C2684CF20303CFF63E
:101D5000F07302EA030241EA0201C160206805F063
:101D60000FFA0646206805F0E7F9304333D1207DAD
:101D7000E16A41EA80302168CA6844F203039A4369
:101D80001043C86094F8382020680169012A15D1F1
:101D900004F13C0C9CE88C100026CFF6FF7606EB95
:101DA00002424FF61E06CFF600463140194311435A
:101DB000394341EA0C0141F0010101E021F0010148
:101DC000016120680169626B21F07041114301617A
:101DD0002046FEF795FD2068E268016B21F00F01B7
:101DE000012A02BFA269013A11430163606D4FF0FD
:101DF000010161F301006065284602B0BDE8F08191
:101E0000404605F0B1F900287FF477AF65E70000A0
:101E100070B5B8B0044600253795CDE93555CDE904
:101E2000335502A8C026C021FEF78EFA206842F280
:101E30000001C4F20201884201D038B070BD0395A0
:101E40004FF400200290022004900C21CDE90510EF
:101E5000CDE9070009962020CDE90A052B9502A8B7
:101E600002F0AAFF002818BFFFF7A6FA44F2D840F4
:101E7000C5F60200016841F020010160016801F02F
:101E8000200101910199816841F001018160806820
:101E900000F00100019001984FF0400033904FF0A6
:101EA000030034904FF00006359640F20000C5F66E
:101EB000020033A902F0E4F841F29025C2F20005D5
:101EC00040F21000C4F202004FF009014FF48062AA
:101ED0004FF400634FF4005C85E84300C5E90362FA
:101EE000C5E9053CC5E907666E62284601F0D8FBE6
:101EF000002818BFFFF760FAE564AC6338B070BD26
:101F00002DE9F04381B0904689460446216842F2AB
:101F10000005C4F2020505F5807605F5407246F22B
:101F20000030C5F60200B14208BF1046A94208BF02
:101F3000104605F0FDF80746206805F021F918B9AC
:101F400094F85000012803D1022001B0BDE8F083CD
:101F5000012084F85000092F5DD8B84040F22121BB
:101F6000084258D02046FEF76FFE00281FBF002110
:101F700084F8501001B0BDE8F083606D40F6017147
:101F800020EA010040F4807060652068B04218BF0C
:101F90000546002F18BF854203D1606D20F48010E4
:101FA0006065616D002011F4805F4FF000011CBF7F
:101FB000A16D21F00601A165E16C40F60132C0F689
:101FC000000240F6A933C0F60003C1E90F2340F632
:101FD0009132C0F60002CA6421684FF01C020A6008
:101FE00084F850002068416841F010014160206889
:101FF000E16A05F0D5F82168E06C01F140014A463C
:10200000434601F0FDFD0546206805F0E5F8284649
:1020100001B0BDE8F083002084F85000012001B039
:10202000BDE8F08300000000B0B5044694F850000D
:10203000012804BF0220B0BD4FF0010084F8500019
:1020400020464FF00301FEF7E7FC38BB2068C1686B
:1020500021F00301C160E06C90F83510022908D12D
:1020600000F022F8054625B1606D40F04000606543
:1020700000E000252068416821F010014160204601
:10208000FEF796FD002D18BF284638B9606D41F265
:102090000111884340F0010060650020002184F8B0
:1020A0005010B0BD000000002DE9F04381B004469F
:1020B00002F0D6F80546002C02BF012001B0BDE8B1
:1020C000F08394F8350002281ED1206840F2B84809
:1020D000C4F2020840F2B709C4F20209484517DD0C
:1020E00040F25741C4F20201884222DC40F227410B
:1020F000C4F20201884237DCB821C4F202018842EE
:102100004FD040F2104147E08020606501208AE214
:102110005721C4F2020188421ADD8721C4F202016C
:1021200088422ADC5821C4F20201884239D0702149
:1021300032E040F28741C4F20201884224DC40F2DE
:102140005841C4F2020188422BD040F2704123E092
:102150001021C4F2020188421EBF2821C4F20201EC
:1021600088421ED0402117E040F22841C4F202010B
:10217000884216D040F240410EE08821C4F20201AC
:1021800088420ED0A02107E040F2A041C4F2020133
:10219000884206D040F28841C4F20201884240F0F1
:1021A000EB8121680A6822F01E00086020684169FE
:1021B00021F0800141612768206840F26F46C4F237
:1021C0000206B04216DC9F21C4F2020188422CDCD8
:1021D0005721C4F2020188424FDC1021C4F20201EF
:1021E00088421EBF2821C4F20201884200F081808B
:1021F000402167E045F22F41C5F60201884227DC05
:1022000040F2B741C4F20201884242DC40F2704120
:10221000C4F2020188421EBF40F28841C4F20201AA
:10222000884266D040F2A0414CE040F22741C4F21F
:102230000201884238DCA021C4F2020188421EBF9C
:10224000B821C4F20201884253D040F2104139E073
:1022500045F26B41C5F60201884238DC45F2304157
:10226000C5F6020188421EBF45F24441C5F602018F
:1022700088423ED045F2584137E05821C4F202016D
:1022800088421EBF7021C4F20201884231D08821E9
:1022900018E040451EBF45F20841C5F602018842DC
:1022A00027D045F21C4120E040F22841C4F202014F
:1022B00088421EBF40F24041C4F20201884218D059
:1022C00040F25841C4F20201884212D016E045F2B1
:1022D0006C41C5F6020188421EBF45F29441C5F625
:1022E0000201884205D045F28041C5F602018842CC
:1022F00004D1206E016821F480710160206840F2F1
:102300000F41C4F20201884210DC6F21C4F20201C5
:1023100088421CDC3F21C4F20201884232DC1021D9
:10232000C4F2020188424ED0282146E0B0421ADCB5
:1023300040F23F41C4F2020188422ADC40F21041DF
:10234000C4F2020188423ED040F2284135E09F218C
:10235000C4F20201884225DC7021C4F202018842E5
:1023600031D0882129E040F29F41C4F20201884225
:102370001FDC40F27041C4F20201884223D040F2D7
:1023800088411AE04021C4F2020188421BD0582142
:1023900013E040F24041C4F20201884213D040F2FF
:1023A00058410AE0A021C4F2020188420BD0B821B2
:1023B00003E0404507D040F2A041C4F20201884248
:1023C00008BF206800E02068016821F00101016079
:1023D000386810F0010F0BD001F042FF401B0628B7
:1023E000F6D320206065032084F8350001201AE12F
:1023F0002068484513DD40F25741C4F2020188428B
:102400001EDC40F22741C4F20201884233DCB821CD
:10241000C4F2020188424BD040F2104143E0572100
:10242000C4F2020188421ADD8721C4F20201884207
:102430002ADC5821C4F20201884239D0702132E0EE
:1024400040F28741C4F20201884224DC40F2584144
:10245000C4F2020188422BD040F2704123E01021E7
:10246000C4F2020188421EBF2821C4F20201884240
:102470001ED0402117E040F22841C4F202018842F8
:1024800016D040F240410EE08821C4F20201884299
:102490000ED0A02107E040F2A041C4F20201884220
:1024A00006D040F28841C4F20201884240F0C18067
:1024B000D4E9161000F01F023F2090408860206889
:1024C000B04216DC9F21C4F2020188422CDC572165
:1024D000C4F20201884258DC1021C4F20201884291
:1024E0001EBF2821C4F20201884200F08A804021E8
:1024F00070E045F22F41C5F60201884227DC40F228
:10250000B741C4F2020188424BDC40F27041C4F290
:10251000020188421EBF40F28841C4F20201884293
:102520006FD040F2A04155E040F22741C4F20201D1
:10253000884241DCA021C4F2020188421EBFB821BA
:10254000C4F2020188425CD040F2104142E045F200
:102550006B41C5F60201884241DC45F23041C5F6C7
:10256000020188421EBF45F24441C5F6020188427D
:1025700047D045F2584140E021680A6840453FF4A1
:1025800012AE22F00E00086015E65821C4F20201D6
:1025900088421EBF7021C4F20201884231D08821D6
:1025A00018E040451EBF45F20841C5F602018842C9
:1025B00027D045F21C4120E040F22841C4F202013C
:1025C00088421EBF40F24041C4F20201884218D046
:1025D00040F25841C4F20201884212D01FE045F295
:1025E0006C41C5F6020188421EBF45F29441C5F612
:1025F0000201884205D045F28041C5F602018842B9
:102600000DD1D4E919014160E06E00281FBF0168B7
:1026100021F480710160D4E91C0118BF41600120E0
:1026200084F835000020002184F8341001B0BDE8A2
:10263000F083D4E9161202F01F0240453FF43CAF8C
:102640000120904048603AE7E8B190F8351002293F
:1026500017D1016840F20F42C4F20202914215DC28
:102660006F23C4F20203994225DC3F23C4F2020324
:1026700099423BDC1023C4F20203994259D028232B
:1026800053E08021416501210846704740F26F43C5
:10269000C4F2020399421ADC40F23F43C4F202033F
:1026A00099422ADC40F21043C4F20203994240D01E
:1026B00040F2284339E09F23C4F20203994225DC0B
:1026C0007023C4F20203994233D088232DE040F2F4
:1026D0009F43C4F2020399421FDC40F27043C4F2EC
:1026E0000203994225D040F288431EE04023C4F201
:1026F000020399421DD0582317E040F24043C4F230
:102700000203994215D040F258430EE0A023C4F2D0
:10271000020399420DD0B82307E040F2B843C4F257
:102720000203994205D040F2A043C4F20203994249
:1027300071D1042180F835100168914210DC6F22BC
:10274000C4F20202914220DC3F22C4F20202914212
:1027500036DC1022C4F20202914254D028224EE00C
:1027600040F26F42C4F2020291421ADC40F23F4250
:10277000C4F2020291422ADC40F21042C4F2020288
:10278000914240D040F2284239E09F22C4F2020236
:10279000914225DC7022C4F20202914233D0882299
:1027A0002DE040F29F42C4F2020291421FDC40F24F
:1027B0007042C4F20202914225D040F288421EE0EB
:1027C0004022C4F2020291421DD0582217E040F28A
:1027D0004042C4F20202914215D040F258420EE04B
:1027E000A022C4F2020291420DD0B82207E040F2CA
:1027F000B842C4F20202914205D040F2A042C4F2B3
:102800000202914220D10068016821F001010160BB
:1028100000210846704701680B6823F00E030B6027
:102820000168914215DC6F22C4F20202914225DC5C
:102830003F22C4F2020291423BDC1022C4F20202A7
:1028400091425BD0282253E0086820F00100086024
:10285000DEE740F26F42C4F2020291421ADC40F21B
:102860003F42C4F2020291422ADC40F21042C4F21A
:102870000202914242D040F2284239E09F22C4F243
:102880000202914225DC7022C4F20202914235D04C
:1028900088222DE040F29F42C4F2020291421FDCE6
:1028A00040F27042C4F20202914227D040F28842C4
:1028B0001EE04022C4F2020291421FD0582217E0CB
:1028C00040F24042C4F20202914217D040F2584214
:1028D0000EE0A022C4F2020291420FD0B82207E01B
:1028E00040F2B842C4F20202914207D040F2A04244
:1028F000C4F20202914208BF016800E001680A6860
:1029000022F001020A60016840F26F42C4F2020242
:10291000914216DC9F22C4F2020291422CDC572223
:10292000C4F2020291424FDC1022C4F20202914230
:102930001EBF2822C4F20202914200F0858040228C
:102940006BE045F22F42C5F60202914227DC40F2CD
:10295000B742C4F20202914242DC40F27042C4F239
:10296000020291421EBF40F28842C4F2020291422A
:102970006AD040F2A04250E040F22742C4F2020284
:1029800091423CDCA022C4F2020291421EBFB82256
:10299000C4F20202914257D040F210423DE045F2AB
:1029A0006B42C5F6020291423CDC45F23042C5F66C
:1029B000020291421EBF45F24442C5F60202914214
:1029C00042D045F258423BE05822C4F20202914202
:1029D0001EBF7022C4F20202914235D088221CE050
:1029E00040F2B842C4F2020291421EBF45F20842D0
:1029F000C5F60202914227D045F21C4220E040F287
:102A00002842C4F2020291421EBF40F24042C4F288
:102A10000202914218D040F25842C4F2020291429E
:102A200012D02CE045F26C42C5F6020291421EBF64
:102A300045F29442C5F60202914205D045F2804229
:102A4000C5F6020291421AD1016E0A6822F4807220
:102A50000A60D0E9161202F01F02012303FA02F203
:102A60004A60D0E919124A60C16E00291FBF0A6886
:102A700022F480720A60D0E91C1218BF4A6001215A
:102A800080F83510002180F83410026D22B180B535
:102A900090470021BDE880400846704700000000D4
:102AA0002DE9F04182B004460020019041F200007F
:102AB000C2F20000006848F2B511C1F64E31A0FB29
:102AC0000108A56D2E682968206840F26F47C4F29E
:102AD0000207B84215DC9F21C4F2020188422BDCB8
:102AE0005721C4F2020188424EDC1021C4F20201D7
:102AF00088421EBF2821C4F20201884272D04021C0
:102B00006BE045F22F42C5F60202904227DC40F20C
:102B1000B742C4F20202904242DC40F27041C4F279
:102B2000020188421EBF40F28841C4F2020188427D
:102B300058D040F2A04150E040F22741C4F20201D7
:102B400088423CDCA021C4F2020188421EBFB821A9
:102B5000C4F20201884245D040F210413DE045F206
:102B60006B42C5F60202904274DC45F23042C5F673
:102B7000020290421EBF45F24442C5F60202904254
:102B80007BD045F2584273E05821C4F202018842DA
:102B90001EBF7021C4F20201884223D088211CE0AC
:102BA00040F2B842C4F2020290421BD045F2084201
:102BB000C5F60202904260D045F21C4258E040F255
:102BC0002841C4F2020188421EBF40F24041C4F2D3
:102BD0000201884206D040F25841C4F20201884204
:102BE00040F0D283E06D00F01F00082101FA00F0F0
:102BF000304200F01E81206840F20F41C4F2020111
:102C0000884213DC6F21C4F20201884200F39080F5
:102C10003F21C4F20201884200F3D2801021C4F2A5
:102C20000201884200F0F0802821E8E0B84200F379
:102C30008B8040F23F41C4F20201884200F3C7801A
:102C400040F21041C4F20201884200F0DD8040F2FF
:102C50002841D4E045F26C42C5F6020290421EBF04
:102C600045F28042C5F60202904206D045F29442F7
:102C7000C5F60202904240F0878320680068E26D4A
:102C800002F01F0210F0040F1EBF0423934013EA4A
:102C900001062AD1830766D50223934013EA010671
:102CA00061D06B60010400F16983800600F1E98462
:102CB000206840F20F41C4F20201884200F31684FA
:102CC0006F21C4F20201884200F391843F21C4F2D3
:102CD0000201884200F3A6841021C4F20201884256
:102CE00000F0C384282100F0BCBC6B6001045FD4F9
:102CF000800600F15084206840F20F41C4F20201C6
:102D0000884200F398836F21C4F20201884200F3E5
:102D1000B6833F21C4F20201884200F3FB831021F5
:102D2000C4F20201884200F03084282100F028BC5F
:102D30009F21C4F20201884252DC7021C4F20201D8
:102D4000884261D088215AE040F29F41C4F20201DA
:102D500088424CDC40F27041C4F20201884253D0F8
:102D600040F288414BE0000740F10E83082090407C
:102D7000084000F00983206840F20F41C4F20201CC
:102D8000884200F36A836F21C4F20201884200F393
:102D900082833F21C4F20201884200F3C2831021E2
:102DA000C4F20201884200F00784282100F000BC30
:102DB000C0034CBF216CA16C002940F03783E3E2D3
:102DC0004021C4F2020188421ED0582117E040F28F
:102DD0004041C4F20201884216D040F258410EE050
:102DE000A021C4F2020188420ED0B82107E040F2CF
:102DF000B841C4F20201884206D040F2A041C4F2B8
:102E00000201884240F0C382206804210068084221
:102E10000FD02068016821F004010160E06D00F02E
:102E20001F00082101FA00F0A860606D40F0010069
:102E30006065E06D00F01F00012101FA00F03042F2
:102E400078D0206840F20F41C4F20201884210DCC1
:102E50006F21C4F2020188421CDC3F21C4F202014E
:102E6000884232DC1021C4F20201884251D028216C
:102E70004AE0B8421ADC40F23F41C4F20201884203
:102E80002ADC40F21041C4F20201884241D040F2F3
:102E9000284139E09F21C4F20201884225DC7021DB
:102EA000C4F20201884234D088212DE040F29F41D3
:102EB000C4F2020188421FDC40F27041C4F20201F8
:102EC000884226D040F288411EE04021C4F202012F
:102ED00088421ED0582117E040F24041C4F202015E
:102EE000884216D040F258410EE0A021C4F20201FF
:102EF00088420ED0B82107E040F2B841C4F2020186
:102F0000884206D040F2A041C4F20201884240F05B
:102F10004082206814308021006808420AD0E06DA9
:102F200000F01F00012101FA00F0A860606D40F080
:102F300002006065E06D00F01F00042101FA00F05E
:102F4000304277D0206840F20F41C4F2020188423B
:102F500010DC6F21C4F2020188421CDC3F21C4F264
:102F60000201884232DC1021C4F20201884251D0B1
:102F700028214AE0B8421ADC40F23F41C4F2020183
:102F800088422ADC40F21041C4F20201884241D05A
:102F900040F2284139E09F21C4F20201884225DC39
:102FA0007021C4F20201884234D088212DE040F221
:102FB0009F41C4F2020188421FDC40F27041C4F21A
:102FC0000201884226D040F288411EE04021C4F22E
:102FD000020188421ED0582117E040F24041C4F25D
:102FE0000201884216D040F258410EE0A021C4F2FE
:102FF000020188420ED0B82107E040F2B841C4F285
:103000000201884206D040F2A041C4F20201884287
:1030100040F0C18120680221006808420AD0E06DBA
:1030200000F01F00042101FA00F0A860606D40F07C
:1030300004006065E06D00F01F00102101FA00F04F
:10304000304200F08B80206840F20F41C4F2020150
:10305000884210DC6F21C4F2020188421CDC3F214F
:10306000C4F20201884232DC1021C4F2020188421B
:1030700051D028214AE0B8421ADC40F23F41C4F264
:10308000020188422ADC40F21041C4F20201884267
:1030900041D040F2284139E09F21C4F20201884228
:1030A00025DC7021C4F20201884234D088212DE051
:1030B00040F29F41C4F2020188421FDC40F270419D
:1030C000C4F20201884226D040F288411EE040212D
:1030D000C4F2020188421ED0582117E040F240415C
:1030E000C4F20201884216D040F258410EE0A021FD
:1030F000C4F2020188420ED0B82107E040F2B84184
:10310000C4F20201884206D040F2A041C4F202019A
:10311000884240F0428120680821006808421DD0A2
:10312000E06D00F01F00102101FA00F0A860206897
:103130000168006811F4802F07D1C0055FBF2068C7
:10314000016821F00801016001E0000301D4216C55
:1031500000E0A16C00291CBF20468847E06D00F00C
:103160001F00202101FA00F0304200F0B8802068F2
:1031700040F20F41C4F20201884210DC6F21C4F218
:10318000020188421CDC3F21C4F20201884232DC89
:103190001021C4F20201884251D028214AE0B842ED
:1031A0001ADC40F23F41C4F2020188422ADC40F2BC
:1031B0001041C4F20201884241D040F2284139E076
:1031C0009F21C4F20201884225DC7021C4F2020171
:1031D000884234D088212DE040F29F41C4F20201A0
:1031E00088421FDC40F27041C4F20201884226D0BE
:1031F00040F288411EE04021C4F2020188421ED004
:10320000582117E040F24041C4F20201884216D032
:1032100040F258410EE0A021C4F2020188420ED0D3
:10322000B82107E040F2B841C4F20201884206D05A
:1032300040F2A041C4F20201884240F0B080206810
:103240001021006808424AD0E06D00F01F002021E4
:1032500001FA00F0A86094F8352021680868042A73
:1032600022D120F0160008602068416921F0800119
:103270004161206C08B9A06C20B12068016821F080
:1032800008010160E06D00F01F003F2101FA00F02D
:10329000A860012084F83500002084F83400216DF6
:1032A000002940F0C3806FE02168096840030DD415
:1032B000C8050FD42068016821F0100101600120C9
:1032C00084F83500002084F8340003E0080301D4BA
:1032D000616C00E0E16B00291CBF20468847606DEF
:1032E000002851D0606D10F0010F00F09C80042088
:1032F00084F83500206840F20F41C4F20201884290
:1033000010DC6F21C4F2020188421CDC3F21C4F2B0
:103310000201884245DC1021C4F20201884265D0D6
:1033200028215DE0B8421ADC40F23F41C4F20201BC
:1033300088423DDC40F21041C4F20201884255D07F
:1033400040F228414CE09F21C4F20201884238DC5F
:103350007021C4F20201884248D0882140E040F246
:103360009F41C4F20201884232DC40F27041C4F253
:10337000020188423AD040F2884131E0C00354BF94
:10338000616CE16B002951D102B0BDE8F0810821E8
:103390003CE50021C0E500213EE60421BDE6022116
:1033A0004FE74021C4F2020188421FD0582117E0A4
:1033B00040F24041C4F20201884217D040F2584125
:1033C0000EE0A021C4F2020188420FD0B82107E02C
:1033D00040F2B841C4F20201884207D040F2A04155
:1033E000C4F20201884208BF206800E020684FEA6A
:1033F0009821026822F00102026000BF0198421C7D
:10340000019220688A4203D8026812F0010FF5D1B8
:10341000006800F00100012141EA400084F8350015
:10342000002084F83400E16C0029ADD020468847A4
:1034300002B0BDE8F081B8423ADC40F23F41C4F24C
:103440000201884274DC40F21041C4F20201884259
:1034500000F09B8040F2284192E0B84237DC40F215
:103460003F41C4F2020188426BDC40F21041C4F2D9
:103470000201884200F0A08040F2284198E09F219C
:10348000C4F20201884265DC7021C4F20201884264
:103490007BD0882174E09F21C4F20201884260DC65
:1034A0007021C4F20201884200F0868088217FE00A
:1034B00040F29F41C4F20201884259DC40F270415F
:1034C000C4F20201884260D040F2884158E040F2E4
:1034D0009F41C4F20201884262DC40F27041C4F2B2
:1034E0000201884268D040F2884161E0B84200F3AE
:1034F0008A8040F23F41C4F20201884200F3998081
:1035000040F21041C4F20201884200F0AE8040F265
:103510002841A6E04021C4F20201884235D058215A
:103520002EE04021C4F20201884245D058213FE0FC
:1035300040F24041C4F20201884226D040F2584194
:103540001EE040F24041C4F20201884234D040F211
:1035500058412DE0A021C4F20201884215D0B821C3
:103560000EE0A021C4F20201884225D0B8211FE05C
:1035700040F2B841C4F20201884206D040F2A041B4
:10358000C4F20201884240F0818020686FF0080197
:10359000026811400160216C00297FF447AFF3E617
:1035A00040F2B841C4F20201884205D040F2A04185
:1035B000C4F2020188426CD120686FF01C010268DD
:1035C00011400160E06D00F01F00012101FA00F0E0
:1035D0006860616584F83510002084F83400E16C7F
:1035E00000291CBF2046884702B0BDE8F0819F211A
:1035F000C4F20201884225DC7021C4F20201884233
:1036000033D088212DE040F29F41C4F2020188426C
:103610001FDC40F27041C4F20201884225D040F222
:1036200088411EE04021C4F2020188421DD0582189
:1036300017E040F24041C4F20201884215D040F246
:1036400058410EE0A021C4F2020188420DD0B821F9
:1036500007E040F2B841C4F20201884205D040F2CE
:10366000A041C4F20201884216D120686FF0140113
:10367000026811400160012084F83500002084F8C0
:103680003400E16B00297FF4D1AE7DE66FF00401D8
:103690007EE76FF00E0192E76FF00A01E8E70000A5
:1036A0002DE9F04381B0044600F0DAFD0546002C18
:1036B00000F07381206840F26F48C4F20208404570
:1036C00015DC9F21C4F2020188422BDC5721C4F291
:1036D0000201884250DC1021C4F2020188421EBF60
:1036E0002821C4F20201884274D040216DE045F2E5
:1036F0002F41C5F60201884227DC40F2B741C4F2EF
:103700000201884244DC40F27041C4F20201884266
:103710001EBF40F28841C4F2020188425AD040F2F2
:10372000A04152E040F22741C4F2020188423EDC4F
:10373000A021C4F2020188421EBFB821C4F20201D6
:10374000884247D040F210413FE045F26B41C5F658
:103750000201884200F38F8045F23041C5F6020134
:1037600088421EBF45F24441C5F60201884200F07E
:10377000958045F258418CE05821C4F202018842FC
:103780001EBF7021C4F20201884223D088211CE0B0
:1037900040F2B841C4F2020188421BD045F2084110
:1037A000C5F60201884279D045F21C4171E040F231
:1037B0002841C4F2020188421EBF40F24041C4F2D7
:1037C0000201884206D040F25841C4F20201884208
:1037D00040F01482022084F83500002084F8340080
:1037E000206840F20F41C4F20201884212DC6F21CE
:1037F000C4F20201884220DC3F21C4F20201884267
:1038000000F391801021C4F20201884200F0B080E0
:103810002821A7E040451EDC40F23F41C4F20201EE
:10382000884200F3878040F21041C4F202018842CE
:1038300000F09E8040F2284194E09F21C4F20201F2
:10384000884200F380807021C4F20201884200F0B7
:103850008F80882186E040F29F41C4F202018842B5
:1038600078DC40F27041C4F20201884200F08080AE
:1038700040F2884176E045F26C41C5F6020188428B
:103880001EBF45F28041C5F60201884206D045F2CE
:103890009441C5F60201884240F0B081022084F8CC
:1038A0003500002084F8340021680A68D4E9023722
:1038B000D4E90465D4E906CED4F820906FF3101251
:1038C00042EAD702802B08BF4FF48040402B08BF4C
:1038D0001020104340EAD60040EAD50040EADC0060
:1038E00040EADE0040EA1910086020684AF6F83124
:1038F000CAF2FD7108444CF6CD41CCF6CC41A0FB98
:1039000001014FF6FC70C3F6FF7000EA9100E0651C
:103910002046FDF741FAE16D01F01F01012202FA94
:1039200001F14160A4E04021C4F2020188421FD0AD
:10393000582117E040F24041C4F20201884217D0FA
:1039400040F258410EE0A021C4F2020188420FD09B
:10395000B82107E040F2B841C4F20201884207D022
:1039600040F2A041C4F20201884208BF206800E092
:103970002068016821F00101016000BF2068016832
:1039800011F0010F0DD000F06BFC401B0628F5D3A1
:1039900020206065032084F83500012001B0BDE8D7
:1039A000F083006848F23F01CFF6106100EA010C95
:1039B00004F10807EECFD4E9080E41EA0C011143E7
:1039C00019432943314339430843BEF1040F02BF71
:1039D000D4E90B120843104341F20001C5F600413F
:1039E0000968B1F1005F1CD361682939292918D809
:1039F000DFE801F015151515151517171717171707
:103A0000171717171717171717171515151517174E
:103A1000171715151717171717171515151540F43C
:103A200080102168086020684069616A20F0070002
:103A300040EA010504290FD1D4E90A01054359B12F
:103A40002046FDF70DFB38B140206065012084F869
:103A5000350001B0BDE8F083206845612046FDF7E0
:103A60009BF9E16D01F01F013F2202FA01F1816033
:103A70002068404516DC9F21C4F2020188422CDCFC
:103A80005721C4F2020188424FDC1021C4F2020126
:103A900088421EBF2821C4F20201884200F08580BE
:103AA00040216BE045F22F41C5F60201884227DC38
:103AB00040F2B741C4F20201884242DC40F2704158
:103AC000C4F2020188421EBF40F28841C4F20201E2
:103AD00088426AD040F2A04150E040F22741C4F24F
:103AE000020188423CDCA021C4F2020188421EBFD0
:103AF000B821C4F20201884257D040F210413DE0A3
:103B000045F26B41C5F6020188423CDC45F230418A
:103B1000C5F6020188421EBF45F24441C5F60201C6
:103B2000884242D045F258413BE05821C4F202019C
:103B300088421EBF7021C4F20201884235D088211C
:103B40001CE040F2B841C4F2020188421EBF45F2B7
:103B50000841C5F60201884227D045F21C4120E009
:103B600040F22841C4F2020188421EBF40F24041A7
:103B7000C4F20201884218D040F25841C4F2020156
:103B8000884212D032E045F26C41C5F6020188420B
:103B90001EBF45F29441C5F60201884205D045F2A8
:103BA0008041C5F60201884220D12046FDF784F904
:103BB000A068802804BF00206060206E2179016029
:103BC000D4E9190141606068A0F10100072809D813
:103BD0002046FDF7E5F9E06E00210160D4E91C0103
:103BE000416003E00020C4E91B00606700206065BD
:103BF000012184F8351001B0BDE8F0834020C8E60B
:103C000070B504468CB394F83400012802BF02203A
:103C1000C0B270BD4FF0010084F8340094F8350054
:103C200001281CD1022084F835000020606520683E
:103C300040F20F46C4F20206B04219DC6F25C4F20E
:103C40000205A84229DC3F25C4F20205A8423FDC58
:103C50001025C4F20205A8425FD0282557E04FF492
:103C600000606065002084F834000120C0B270BD9F
:103C700040F26F45C4F20205A8421ADC40F23F450B
:103C8000C4F20205A8422ADC40F21045C4F2020543
:103C9000A84242D040F2284539E09F25C4F20205EF
:103CA000A84225DC7025C4F20205A84235D088253B
:103CB0002DE040F29F45C4F20205A8421FDC40F20D
:103CC0007045C4F20205A84227D040F288451EE0A4
:103CD0004025C4F20205A8421FD0582517E040F243
:103CE0004045C4F20205A84217D040F258450EE004
:103CF000A025C4F20205A8420FD0B82507E040F283
:103D0000B845C4F20205A84207D040F2A045C4F26B
:103D10000205A84208BF206800E02068056825F079
:103D2000010505602046FDF7C7F92068B721C4F2F8
:103D30000201884213DD40F25741C4F20201884279
:103D40001EDC40F22741C4F20201884233DCB82174
:103D5000C4F2020188424BD040F2104143E05721A7
:103D6000C4F2020188421ADD8721C4F202018842AE
:103D70002ADC5821C4F20201884239D0702132E095
:103D800040F28741C4F20201884224DC40F25841EB
:103D9000C4F2020188422BD040F2704123E010218E
:103DA000C4F2020188421EBF2821C4F202018842E7
:103DB0001ED0402117E040F22841C4F2020188429F
:103DC00016D040F240410EE08821C4F20201884240
:103DD0000ED0A02107E040F2A041C4F202018842C7
:103DE00006D040F28841C4F20201884240F02981A5
:103DF000226811680B2060F344011160206C20B12F
:103E00002068016841F008010160216840F26F40BC
:103E1000C4F20200814216DC9F22C4F202029142E7
:103E20002CDC5722C4F2020291424FDC1022C4F271
:103E3000020291421EBF2822C4F20202914200F007
:103E4000858040226BE045F22F42C5F60202914286
:103E500027DC40F2B742C4F20202914242DC40F257
:103E60007042C4F2020291421EBF40F28842C4F284
:103E7000020291426AD040F2A04250E040F2274252
:103E8000C4F2020291423CDCA022C4F2020291423E
:103E90001EBFB822C4F20202914257D040F2104233
:103EA0003DE045F26B42C5F6020291423CDC45F230
:103EB0003042C5F6020291421EBF45F24442C5F6A9
:103EC0000202914242D045F258423BE05822C4F2ED
:103ED000020291421EBF7022C4F20202914235D00A
:103EE00088221CE040F2B842C4F2020291421EBF96
:103EF00045F20842C5F60202914227D045F21C4223
:103F000020E040F22842C4F2020291421EBF40F279
:103F10004042C4F20202914218D040F25842C4F228
:103F20000202914212D021E045F26C42C5F6020233
:103F300091421EBF45F29442C5F60202914205D05D
:103F400045F28042C5F6020291420FD1216E0A6805
:103F500012F4803F1EBF0A6842F480720A60E16E6C
:103F600000291EBF0A6842F480720A602168B142CB
:103F700010DC6F20C4F2020081421CDC3F20C4F23E
:103F80000200814232DC1020C4F20200814250D093
:103F900028204AE081421ADC40F23F40C4F202008D
:103FA00081422ADC40F21040C4F20200814240D03B
:103FB00040F2284039E09F20C4F20200814225DC13
:103FC0007020C4F20200814233D088202DE040F2FC
:103FD0009F40C4F2020081421FDC40F27040C4F2F4
:103FE0000200814225D040F288401EE04020C4F209
:103FF000020081421DD0582017E040F24040C4F238
:104000000200814215D040F258400EE0A020C4F2D8
:10401000020081420DD0B82007E040F2B840C4F25F
:104020000200814205D040F2A040C4F20200814269
:104030001ED12068016841F0010101600020C0B27A
:1040400070BD2268116840F2B843C4F2020398427E
:104050003FF4D0AE052060F3430120680160206C7E
:1040600000283FF4D2AE2068016841F00401CBE69D
:10407000086840F001000860E0E700000000000070
:104080002DE9F04F82B00E68002E00F0D58042F28C
:104090000042C5F602020A27904208BF092700F134
:1040A000264202F1FF724FEAB223092B38BF4FEAD2
:1040B000B227009700224FF0030E40F2040AC5F623
:1040C000000A0027012500BFA5F10109012303FA19
:1040D00009FB16EA0B0800F0A4804E6806F0030600
:1040E000013E012E13D80EFA07F6D0F808C02CEACC
:1040F0000606CB68BB4033438360436823EA0B0367
:104100004E68C6F3001606FA09F6334343604B685F
:1041100003F00303032B08D00EFA07F3C66826EA60
:1041200003038E68BE403343C3604B6803F0030350
:10413000022B14D102F01C030F2606FA03FC4FF6E3
:10414000FC74C7F6FF7404EA59040444266A26EA9C
:104150000C0C0E6906FA03F343EA0C0323620EFA11
:1041600007F3066826EA03034E6806F00306BE401E
:10417000334303608B799B0753D044F2F443C5F675
:1041800002031E46336843F002033360336803F0D2
:1041900002030193019B29F0030340F20846C5F690
:1041A0000006B14653F809C002F00C040F26A640E1
:1041B0002CEA060C009E06FA04F44CEA040643F8C6
:1041C00009604FF0B044236823EA08034E6816F4F0
:1041D000801F18BF43EA08032360DAF8003023EA9F
:1041E00008034E6816F4001F18BF43EA0803CAF814
:1041F0000030DAF8803023EA08034E6816F4003FF6
:1042000018BF43EA0803CAF88030DAF87C3023EAA2
:1042100008034E6816F4803F18BF43EA0803CAF843
:104220007C300E6836FA05F302F1040207F102074A
:1042300005F101057FF448AF02B0BDE8F08F000042
:10424000002A08BF090481617047000000000000D7
:1042500041F20000C5F600400068000C7047000005
:1042600041F2CC40C2F2000000687047000000003C
:1042700041F20800C2F20000007841F2CC41C2F2E3
:1042800000010A6810440860704700000000000048
:1042900080B5032000F0D8F801F0F6FB44F2184195
:1042A000C5F602010A68C2F3032249F6E843C0F6E4
:1042B00000039A5C02F01F02D040096801F00F0170
:1042C000595C01F01F0120FA01F141F20402C2F22F
:1042D0000002116041F20001C2F2000108600F20EB
:1042E00000F00AF800281CBF012080BD00F080F813
:1042F0004FF0000080BD0000B0B5044641F2080058
:10430000C2F200000078002802BF01252846B0BD97
:104310004FF47A71B1FBF0F041F20001C2F20001FA
:104320000968B1FBF0F001F01BFF4FF001050F2C05
:104330000CD858B900254FF0FF302146002200F07C
:1043400073F841F20C00C2F2000004602846B0BDD0
:1043500010B541784EF6A052CEF2000242F8081C89
:10436000116821F001011160416842F8041C017BD1
:10437000C37A1B0643EA017190F800C090F808E088
:10438000437A847A41EAC441447B41EA8441847B94
:1043900041EA4441C07B41EA004040EA032040EA50
:1043A0004E0040EA0C00106010BD0000000000004C
:1043B000BFF35F8F4EF62450CEF20000016821F467
:1043C000803101600021016770470000000000009B
:1043D00040F001004EF62451CEF200010867086853
:1043E00040F480300860BFF34F8FBFF36F8F70478A
:1043F00081B044F2F440C5F60200016841F00201C8
:104400000160006800F002000090009801B0704761
:1044100004F0FEBE0000000004F00EBF000000002B
:1044200004F022BF0000000070B514460D46064699
:1044300004F02EFF2946224603F0FAF901463046E1
:10444000BDE8704004F02CBF04F03EBF0000000047
:10445000B0B544F60C05C5F602052A68296812F0C5
:10446000040F05D101F00701081A18BF0120B0BDE3
:1044700021F0070108432860FFF7F2FE044600BF61
:1044800055F8080C10F4005F1CBF0020B0BDFFF70A
:10449000E7FEA0EB0400B0F57A7F84BF0120B0BD39
:1044A000EEE700000000000080B501F09DFA44F244
:1044B0002041C5F602010968C1F3021149F6E8423C
:1044C000C0F60002515C01F01F01C84080BD000031
:1044D00080B544F2304CC5F6020C5CF808EC5CF890
:1044E000082C5CF8041CDCF8043001F0010149429E
:1044F00001EAD3016FF35F3100EE101AC2F3051227
:10450000B8EE400A12B30EF00303022B23D0012BA6
:104510002AD093BB9FED4D1A02EE102AB8EE422A24
:104520005CF8301C20EE010A11F0200F71D1DCF88C
:1045300000106FF35F219FED471A03EE101AB8EEDB
:10454000433A81EE022A30EE031A2AE00021C0E944
:104550000011816080BDDCF8001001EE102A6FF3BD
:104560005F219FED392A10E0DCF8001001EE102ADF
:104570006FF35F219FED362A07E0DCF8001001EEB3
:10458000102A6FF35F219FED332A9FED303AB8EE8A
:10459000414A01EE101AB8EE411A82EE042A00EEEA
:1045A000031ADCF80010B7EE000AC1F3462131EE21
:1045B000001A03EE101AB8EE433A22EE011A33EE57
:1045C000002A81EE022ABCEEC22A80ED002ADCF825
:1045D0000010C1F3064102EE101AB8EE422A32EE84
:1045E000002A81EE022ABCEEC22A80ED012ADCF804
:1045F0000010C1F3066102EE101AB8EE422A32EE44
:10460000000A81EE000ABCEEC00A10EE101A8160AA
:1046100080BD5CF8301CC1F3C10149F20002C0F258
:10462000D03222FA01F1DCF800206FF35F2201EEB4
:10463000102A03EE101AB8EE411AB8EE433A30EEE3
:10464000011A83EE022AACE720BCBE4B0000003901
:104650000024744A0024744C80B544F2384CC5F6EA
:10466000020C5CF810EC5CF8102C5CF80C1CDCF80C
:104670000430C1F30011494201EAD3016FF35F3105
:1046800000EE101AC2F30532B8EE400A12B30EF073
:104690000303022B2CD0012B21D003BB9FED491A21
:1046A00002EE102AB8EE422A5CF8381C20EE010A0D
:1046B00011F0200F68D1DCF800106FF35F219FED3F
:1046C000431A03EE101AB8EE433A81EE022A30EE96
:1046D000031A21E00021C0E90011816080BDDCF8EF
:1046E000001001EE102A6FF35F219FED372A07E0DB
:1046F000DCF8001001EE102A6FF35F219FED302AE5
:104700009FED303AB8EE414A01EE101AB8EE411A68
:1047100082EE042A00EE031ADCF80010B7EE000A5D
:10472000C1F3462131EE001A03EE101AB8EE433AF7
:1047300022EE011A33EE002A81EE022ABCEEC22AD2
:1047400080ED002ADCF80010C1F3064102EE101AD9
:10475000B8EE422A32EE002A81EE022ABCEEC22ACC
:1047600080ED012ADCF80010C1F3066102EE101A98
:10477000B8EE422A32EE000A81EE000ABCEEC00A10
:1047800010EE101A816080BD5CF8381CC1F3C101C5
:1047900049F20002C0F2D03222FA01F1DCF8002026
:1047A0006FF35F2201EE102A03EE101AB8EE411AE1
:1047B000B8EE433A30EE011A83EE022AACE700BFAE
:1047C00020BCBE4B000000390024744A0024744C05
:1047D00080B544F2404CC5F6020C5CF818EC5CF86D
:1047E000182C5CF8141CDCF80430C1F30021494299
:1047F00001EAD3016FF35F3100EE101AC2F30552E4
:10480000B8EE400A12B30EF00303022B2CD0012B9A
:1048100021D003BB9FED491A02EE102AB8EE422ABE
:104820005CF8401C20EE010A11F0200F68D1DCF882
:1048300000106FF35F219FED431A03EE101AB8EEDC
:10484000433A81EE022A30EE031A21E00021C0E94A
:104850000011816080BDDCF8001001EE102A6FF3BA
:104860005F219FED372A07E0DCF8001001EE102AE7
:104870006FF35F219FED302A9FED303AB8EE414A49
:1048800001EE101AB8EE411A82EE042A00EE031A65
:10489000DCF80010B7EE000AC1F3462131EE001A31
:1048A00003EE101AB8EE433A22EE011A33EE002A54
:1048B00081EE022ABCEEC22A80ED002ADCF800104C
:1048C000C1F3064102EE101AB8EE422A32EE002A77
:1048D00081EE022ABCEEC22A80ED012ADCF800102B
:1048E000C1F3066102EE101AB8EE422A32EE000A57
:1048F00081EE000ABCEEC00A10EE101A816080BD85
:104900005CF8401CC1F3C10149F20002C0F2D03290
:1049100022FA01F1DCF800206FF35F2201EE102A89
:1049200003EE101AB8EE411AB8EE433A30EE011A0F
:1049300083EE022AACE700BF20BCBE4B000000396A
:104940000024744A0024744C70B58AB002460020DA
:1049500040F6001EC0F23D0E47F6400CC0F27D1C32
:1049600049F20004C0F2D03444F20043C5F6020319
:1049700041F6FF75AD1A70EB01052EDB48F200051C
:10498000C0F2BB0540F2FF36B61A70EB01064DDAF5
:1049900082F480660E4300F0858082F400660E4348
:1049A00000F0968082F48052114340F01681186D19
:1049B000C0F30231042900F2E28100EB81022846B3
:1049C000DFE811F005002E0134010B013A011868EF
:1049D00010F0007F00F0D3811CE147F6FF75AD1A9F
:1049E00070EB010542DA82F400450D4300F0868049
:1049F00082F480350D4300F0908082F40022114350
:104A000040F0EB80986D00F44030B0F5003F00F0CE
:104A1000D180B0F5803F00F0E280002840F0AF8107
:104A2000186810F0006F40F07381A8E182F480767E
:104A30000E4300F07B8082F40072114340F0CD8081
:104A4000186DC0F38211042900F2998100EB8102F4
:104A50002846DFE811F0050003010901C2000F013B
:104A6000186810F0007F00F08A81D3E082F40055CE
:104A70000D4300F0718082F48042114340F0AD801C
:104A8000986DC0F30270052800F27981DFE810F01C
:104A900006005F01640185008C007600FFF704FDCD
:104AA0000AB070BD986DC0F34251042900F26781CD
:104AB00000EB81022846DFE811F00500EF00F4006A
:104AC0009000F900186810F0007F00F05881A1E014
:104AD000986DC0F30261042900F2518100EB81025C
:104AE0002846DFE811F00500F500FA007A00FF0023
:104AF000186810F0007F00F042818BE0186D00F024
:104B00004050B0F1005F00F07580B0F1805F00F0C0
:104B10007C80002840F0338130E0D96C186811F4B3
:104B2000803F31D1800140F12A8173E0186D00F09F
:104B30000701042900F2238100EB81022846DFE807
:104B400011F00500E300ED004C00F700186810F0CC
:104B5000007F00F014815DE0186DC0F3024005286D
:104B600000F20D81DFE810F00600FD0007011900DA
:104B700020000A0000F060FF0AB070BD18688003D2
:104B80000CEAE0700AB070BD000140F1F88004A8A2
:104B9000FFF762FD06980AB070BD186810F0040FA8
:104BA00000F0ED801868CCE01868C0050EEAE070EF
:104BB0000AB070BDD96C1A68186811F0405103D161
:104BC00012F0040240F0BD80B1F1805F40F0E88057
:104BD00010F48070704600F0E3800AB070BD186871
:104BE00010F0005F00F0CB8001A8FFF7F1FD039803
:104BF0000AB070BD186810F0006F00F0C08004A803
:104C0000FFF72AFD05980AB070BD186810F0007F04
:104C100000F0B58007A8FFF75BFC08980AB070BDEC
:104C2000186810F0006F00F0AA8071E0186810F0AA
:104C3000005F00F0A48075E0D96C1A68186811F064
:104C4000405102D112F004027BD1B1F1805F40F0FB
:104C5000A78010F480707046BFD1A1E0186810F0F2
:104C6000006F00F08C8053E0186810F0005F00F0D7
:104C7000868057E0D96C1A68186811F0405102D14B
:104C800012F004025DD1B1F1805F40F0898010F430
:104C900080707046A1D183E0186810F0006F6ED06C
:104CA00036E0186810F0005F69D03BE0D96C1A68F4
:104CB000186811F0405102D112F0040241D1B1F153
:104CC000805F6DD110F4807070467FF486AF67E02E
:104CD000186810F0006F52D01AE0186810F0005FEA
:104CE0004DD01FE0D96C1A68186811F0405102D1FC
:104CF00012F0040225D1B1F1805F51D110F480701F
:104D000070467FF46AAF4BE0186810F0006F36D041
:104D100004A8FFF7A1FC04980AB070BD186810F051
:104D2000005F2CD001A8FFF753FD01980AB070BDB9
:104D3000D96C1A68186811F0405129D112F0040298
:104D400026D0C0F3C10024FA00F00AB070BD186884
:104D500010F0006F13D008E0186810F0005F0ED05C
:104D600010E0186810F0006F09D004A8FFF774FC79
:104D700005980AB070BD186810F0005F02D10020DD
:104D80000AB070BD01A8FFF723FD02980AB070BDFC
:104D9000B1F1805F04D110F4807070467FF41DAFD4
:104DA000186810F4003018BF6046B1F1005F18BFFA
:104DB00000200AB070BD00002DE9F04F81B004461C
:104DC000E078000744F22C48C5F6020826D5A06E0C
:104DD0004FEA305003280AD8DFE800F0020B111820
:104DE000D8F8000040F40030C8F800000EE00125BB
:104DF00015E004F10800022102F03AFD04E004F19C
:104E00002800022102F0C4FD054645B9D8F8240067
:104E1000A16E20F440100843C8F8240000256078F3
:104E2000C00701D12E462BE0A06D04280DD82E46D8
:104E3000DFE800F0030E141A1A00D8F8000040F45E
:104E40000030C8F800002E460EE00126012718E0C9
:104E500004F10800002102F00BFD04E004F1280039
:104E6000002102F095FD0646002E374609D1D8F8FC
:104E70002400A16D20F007000843C8F82400002694
:104E80002F46607880072BD5E06D4FEAB0100428DC
:104E90000BD8DFE800F0030D13191900D8F8000053
:104EA00040F40030C8F800000EE00126012518E0AB
:104EB00004F10800002102F0DBFC04E004F128000A
:104EC000002102F065FD0646002E354609D1D8F8CE
:104ED0002400E16D20F4E0700843C8F824000026A7
:104EE0003D46607840072ED5D4F8A8004FEA7050B0
:104EF00004280BD8DFE800F0030E141A1A00D8F8C3
:104F0000000040F40030C8F800000FE001264FF028
:104F1000010919E004F10800002102F0A9FC04E0F5
:104F200004F12800002102F033FD0646002EB146B0
:104F30000AD1D8F82C00D4F8A81020F46000084357
:104F4000C8F82C000026A946607800072DD5D4F8B3
:104F5000AC004FEA306004280BD8DFE800F0030D06
:104F600013191900D8F8000040F40030C8F8000008
:104F70000EE00126012719E004F10800002102F0EB
:104F800077FC04E004F12800002102F001FD064650
:104F9000002E37460AD1D8F82C00D4F8AC1020F0F7
:104FA000E0600843C8F82C0000264F46E0788007F0
:104FB00024D5E06C4FEA301003280AD8DFE800F06F
:104FC00012020C12D8F8000040F40030C8F80000BB
:104FD00008E00126012512E004F10800022102F098
:104FE00047FC0646002E354609D1D8F82000E16C72
:104FF00020F030000843C8F8200000263D466078C5
:10500000C0062BD5206E4FEA303004280BD8DFE8DD
:1050100000F0030D13191900D8F8000040F4003017
:10502000C8F800000EE00126012718E004F108008E
:10503000002102F01DFC04E004F12800002102F030
:10504000A7FC0646002E374609D1D8F82400216E69
:1050500020F4E0400843C8F8240000262F4660787A
:10506000800624D5606E4FEA304005280AD8DFE874
:1050700000F012030C12121204F10800012102F0D8
:10508000F7FB07E00126012512E004F128000121C9
:1050900002F07EFC0646002E354609D1D8F82400E1
:1050A000616E20F4E0200843C8F8240000263D4645
:1050B0006078400626D5D4F8B0004FEA3070052855
:1050C0000AD8DFE800F012030C12121204F10800F3
:1050D000012102F0CDFB07E00126012713E004F1D6
:1050E0002800012102F054FC0646002E37460AD162
:1050F000D8F82C00D4F8B01020F0E0400843C8F8ED
:105100002C0000262F466078000620D5206F90B135
:10511000B0F1005F09D0B0F1805F2AD1D8F800006B
:1051200040F40030C8F8000005E004F10800012157
:1051300002F09EFB0646002E354609D1D8F8240021
:10514000216F20F040500843C8F8240000263D4657
:10515000E078C00726D0A06C03280DD8DFE800F067
:1051600016021016D8F8000040F40030C8F800000D
:105170000CE001260125EBE701264FF0010912E0C2
:1051800004F10800022102F073FB0646002EB1462E
:1051900009D1D8F82000A16C20F003000843C8F81A
:1051A00020000026A946A078400602D435464F4686
:1051B00018E0D8F8D40340F48070C8F8D403FFF79F
:1051C0004FF80546D8F8D40310F4807F07D1FFF7D5
:1051D00047F8401B6428F5D90325032702E0A6B150
:1051E000354637462078C00758D0E06F4FEAF000C8
:1051F00005283ED8DFE800F046034046464604F165
:105200000800012102F034FB3BE0D8F84410D4F848
:10521000B400414011F4407F13D0D8F84400D8F8CE
:10522000441041F48031C8F84410D8F8441021F4F7
:105230008031C8F8441020F44070C8F84400D4F815
:10524000B400B0F5807F40F07082FFF709F8824625
:1052500041F2883B03250327D8F8440010F0020FE1
:1052600040F05E82FEF7FCFFA0EB0A005845F3D940
:10527000B8E70125012612E004F12800012102F01F
:1052800087FB0546002D2E4609D1D8F82800E16F8E
:1052900020F038000843C8F8280000253E46207852
:1052A000800722D5A06F05280AD8DFE800F0120396
:1052B0000C12121204F10800012102F0D9FA07E0E1
:1052C0000125012712E004F12800012102F060FB12
:1052D0000546002D2F4609D1D8F82800A16F20F0EF
:1052E00007000843C8F82800002537462078400703
:1052F00024D5D4F8940005280AD8DFE800F012037A
:105300000C12121204F10800012102F0B1FA07E0B8
:105310000125012613E004F12800012102F038FBE9
:105320000546002D2E460AD1D8F82C00D4F894104A
:1053300020F007000843C8F82C0000253E462078DE
:10534000800626D5D4F890004FEA307005280AD898
:10535000DFE800F012030C12121204F10800002121
:1053600002F086FA07E00125012713E004F1280086
:10537000022102F00DFB0546002D2F460AD1D8F878
:105380002800D4F8901020F0E0400843C8F8280026
:10539000002537462078400626D5D4F89C004FEAF1
:1053A000B02005280AD8DFE800F012030C12121210
:1053B00004F10800002102F05BFA07E00125012654
:1053C00013E004F12800022102F0E2FA0546002D64
:1053D0002E460AD1D8F82C00D4F89C1020F4E050C6
:1053E0000843C8F82C0000253E462078000626D544
:1053F000D4F8A0004FEA703005280AD8DFE800F0A2
:1054000012030C12121204F10800002102F030FA0B
:1054100007E00125012713E004F12800022102F032
:10542000B7FA0546002D2F460AD1D8F82C00D4F83B
:10543000A01020F460400843C8F82C00002537462F
:105440002078000715D5D4F88400B0F5805F07D127
:1054500004F12800022102F09BFA002818BF01275E
:10546000D8F82800D4F8841020F440500843C8F835
:1054700028002078C00615D5D4F89800B0F5807FB4
:1054800007D104F12800022102F082FA002818BF97
:105490000127D8F82C00D4F8981020F44070084365
:1054A000C8F82C00A078000721D5D4F8A400B0F5E6
:1054B000003F0FD0B0F5803F06D078BB04F1080064
:1054C000002102F0D5F904E004F12800022102F0E5
:1054D0005FFA0546002D2E460AD1D8F82C00D4F8E4
:1054E000A41020F440300843C8F82C0000253E46A4
:1054F000A078400728D5D4F88800B0F5401F16D012
:10550000B0F5001F0DD0B0F5801F40F00481D8F831
:10551000000040F40030C8F8000008E00125012632
:10552000E6E704F12800012102F032FA0546002DD9
:105530002F460AD1D8F82800D4F8881020F440105B
:105540000843C8F8280000253746A078C00701D1D5
:105550003E4620E0206DB0F5803F07D0C8B9D8F8AE
:10556000000040F40030C8F8000005E004F1080035
:10557000022102F07DF90546002D2E460BD1D8F808
:105580002000216D20F480300843C8F82000002559
:10559000DEE701250126E078800607D504F1280022
:1055A000022102F0F5F9002818BF0126A078800733
:1055B0001DD5D4F880006FF0010101EB30210229E4
:1055C0000BD34FEA302040B1012840F0A780D8F833
:1055D000000040F40030C8F800004DB9D8F82800A9
:1055E000D4F8801020F440700843C8F828003546ED
:1055F000A078C00607D5D8F82400616F20F00040DD
:105600000843C8F82400E078C00608D558F81C0CF8
:10561000D4F8B81020F48040084348F81C0CA07857
:10562000800607D5D8F82400E16E20F0807008438A
:10563000C8F82400E07840060CD558F81C0C20F47B
:10564000004048F81C0CD4F8BC0058F81C1C084357
:1056500048F81C0C2068B0F1FF3F07DCD8F82000A8
:10566000616D20F040500843C8F82000A078000683
:1056700008D5D8F82800D4F88C1020F4400008434E
:10568000C8F828002079C00707D004F108000021DD
:1056900002F0EEF8002818BF05462079800707D5EC
:1056A00004F10800012102F0E3F8002818BF0546C4
:1056B0002079400707D504F10800022102F0D8F84C
:1056C000002818BF05462079000707D504F12800F7
:1056D000002102F05DF9002818BF05462079C006B8
:1056E00007D504F12800012102F052F9002818BF63
:1056F00005462079800607D504F12800022102F032
:1057000047F9002818BF0546002D18BF0125284677
:1057100001B0BDE8F08F0125012716E7012567E7F5
:10572000002E354637467FF45DADD4F8B41058F8F6
:105730001C0C20F47C5001F44072B2F5407F01BF94
:105740004FF6CF72C0F2FF0202EA1111084348F887
:105750001C0CD4F8B400D8F844106FF31F3040EAA2
:105760000100C8F844004FF0000520E500000000EB
:105770002DE9F04381B089460446002C76D042F2F0
:105780000008C5F20028D8F8000000F00F004845D6
:105790000DD2D8F8000020F00F0040EA0900C8F848
:1057A0000000D8F8000000F00F00484560D12078D4
:1057B000400744F21847C5F602070AD52069396840
:1057C00001F07001884281BF396821F070010843FF
:1057D0003860207800070AD56069796801F07001A7
:1057E000884281BF796821F0700108437860207891
:1057F000C0060AD5A069796801F4E061884281BFDA
:10580000796821F4E06108437860207880060AD541
:10581000E069B96801F07001884281BFB96821F080
:1058200070010843B860207880070AD5E0683968BD
:1058300001F00F01884281BF396821F00F01084350
:1058400038602078C00744D03868A16820F47060C0
:1058500008433860606803280CD0022811D157F83B
:10586000180C10F4003F18D10120B6E00120B4E07C
:105870000120B2E057F8180C10F0007F0DD1012084
:10588000ABE057F8181C012803D1C80505D4012046
:10589000A3E0480701D401209FE057F8080C616895
:1058A00020F00700084347F8080CFEF7D9FC06462D
:1058B00041F2883557F8080C616800F03800B0EB09
:1058C000C10F06D0FEF7CCFC801BA842F2D9032002
:1058D00083E0207880070AD5E068396801F00F017D
:1058E00088423FBF396821F00F0108433860D8F87B
:1058F000000000F00F0048450DD9D8F8000020F056
:105900000F0040EA0900C8F80000D8F8000000F0D5
:105910000F00484560D1207840070AD520693968D2
:1059200001F0700188423FBF396821F070010843DF
:105930003860207800070AD56069796801F0700145
:1059400088423FBF796821F0700108437860207871
:10595000C0060AD5A069796801F4E06188423FBFBA
:10596000796821F4E06108437860207880060AD5E0
:10597000E069B96801F0700188423FBFB96821F061
:1059800070010843B86000F07FF83968C1F3032163
:1059900049F6E842C0F60002515C01F01F01C84020
:1059A000396801F00F01515C01F01F0120FA01F18B
:1059B00041F20402C2F20002116041F20001C2F29F
:1059C0000001086041F20C00C2F20000006801B062
:1059D000BDE8F043FEF790BC0120C0B201B0BDE8C5
:1059E000F08300000000000080B500F04DF844F2A4
:1059F0001841C5F602010A68C2F3032249F6E843DA
:105A0000C0F600039A5C02F01F0220FA02F2086856
:105A100000F00F00185C00F01F0022FA00F041F2C5
:105A20000401C2F20001086041F20001C2F200016B
:105A30000A6080BD0000000080B5FFF7D5FF44F28A
:105A40001C41C5F602010968C1F3021149F6E8429A
:105A5000C0F60002515C01F01F01C84080BD00008B
:105A600080B5FFF7C1FF44F21C41C5F60201096889
:105A7000C1F3022149F6E842C0F60002515C01F090
:105A80001F01C84080BD000080B544F2304EC5F60D
:105A9000020E5EF8200CC0F3C20249F20000C0F210
:105AA000D030032A14D0022A4ED0002A1EBF40F65E
:105AB0000010C0F23D0080BD5EF8302C12F0200FC7
:105AC0001FBF5EF8301CC1F3C101C84080BD80BD5E
:105AD0005EF808CC5EF8082C5EF8043CDEF8041092
